{
  "_format": "hh-sol-artifact-1",
  "contractName": "MyERC721",
  "sourceName": "contracts/MyERC721.sol",
  "abi": [
    {
      "inputs": [
        {
          "internalType": "string",
          "name": "name",
          "type": "string"
        },
        {
          "internalType": "string",
          "name": "symbol",
          "type": "string"
        }
      ],
      "stateMutability": "nonpayable",
      "type": "constructor"
    },
    {
      "anonymous": false,
      "inputs": [
        {
          "indexed": true,
          "internalType": "address",
          "name": "owner",
          "type": "address"
        },
        {
          "indexed": true,
          "internalType": "address",
          "name": "approved",
          "type": "address"
        },
        {
          "indexed": true,
          "internalType": "uint256",
          "name": "tokenId",
          "type": "uint256"
        }
      ],
      "name": "Approval",
      "type": "event"
    },
    {
      "anonymous": false,
      "inputs": [
        {
          "indexed": true,
          "internalType": "address",
          "name": "owner",
          "type": "address"
        },
        {
          "indexed": true,
          "internalType": "address",
          "name": "operator",
          "type": "address"
        },
        {
          "indexed": false,
          "internalType": "bool",
          "name": "approved",
          "type": "bool"
        }
      ],
      "name": "ApprovalForAll",
      "type": "event"
    },
    {
      "anonymous": false,
      "inputs": [
        {
          "indexed": true,
          "internalType": "address",
          "name": "from",
          "type": "address"
        },
        {
          "indexed": true,
          "internalType": "address",
          "name": "to",
          "type": "address"
        },
        {
          "indexed": true,
          "internalType": "uint256",
          "name": "tokenId",
          "type": "uint256"
        }
      ],
      "name": "Transfer",
      "type": "event"
    },
    {
      "inputs": [],
      "name": "InitUserNFT",
      "outputs": [],
      "stateMutability": "nonpayable",
      "type": "function"
    },
    {
      "inputs": [],
      "name": "addNumPassedProposal",
      "outputs": [],
      "stateMutability": "nonpayable",
      "type": "function"
    },
    {
      "inputs": [
        {
          "internalType": "address",
          "name": "to",
          "type": "address"
        },
        {
          "internalType": "uint256",
          "name": "tokenId",
          "type": "uint256"
        }
      ],
      "name": "approve",
      "outputs": [],
      "stateMutability": "nonpayable",
      "type": "function"
    },
    {
      "inputs": [
        {
          "internalType": "address",
          "name": "player",
          "type": "address"
        },
        {
          "internalType": "string",
          "name": "tokenURI",
          "type": "string"
        }
      ],
      "name": "awardItem",
      "outputs": [
        {
          "internalType": "uint256",
          "name": "",
          "type": "uint256"
        }
      ],
      "stateMutability": "nonpayable",
      "type": "function"
    },
    {
      "inputs": [
        {
          "internalType": "address",
          "name": "owner",
          "type": "address"
        }
      ],
      "name": "balanceOf",
      "outputs": [
        {
          "internalType": "uint256",
          "name": "",
          "type": "uint256"
        }
      ],
      "stateMutability": "view",
      "type": "function"
    },
    {
      "inputs": [
        {
          "internalType": "uint256",
          "name": "tokenId",
          "type": "uint256"
        }
      ],
      "name": "getApproved",
      "outputs": [
        {
          "internalType": "address",
          "name": "",
          "type": "address"
        }
      ],
      "stateMutability": "view",
      "type": "function"
    },
    {
      "inputs": [],
      "name": "getUserNFT",
      "outputs": [
        {
          "internalType": "uint256",
          "name": "",
          "type": "uint256"
        },
        {
          "internalType": "bool",
          "name": "",
          "type": "bool"
        },
        {
          "internalType": "uint256",
          "name": "",
          "type": "uint256"
        },
        {
          "internalType": "string",
          "name": "",
          "type": "string"
        }
      ],
      "stateMutability": "view",
      "type": "function"
    },
    {
      "inputs": [
        {
          "internalType": "address",
          "name": "owner",
          "type": "address"
        },
        {
          "internalType": "address",
          "name": "operator",
          "type": "address"
        }
      ],
      "name": "isApprovedForAll",
      "outputs": [
        {
          "internalType": "bool",
          "name": "",
          "type": "bool"
        }
      ],
      "stateMutability": "view",
      "type": "function"
    },
    {
      "inputs": [],
      "name": "name",
      "outputs": [
        {
          "internalType": "string",
          "name": "",
          "type": "string"
        }
      ],
      "stateMutability": "view",
      "type": "function"
    },
    {
      "inputs": [
        {
          "internalType": "uint256",
          "name": "tokenId",
          "type": "uint256"
        }
      ],
      "name": "ownerOf",
      "outputs": [
        {
          "internalType": "address",
          "name": "",
          "type": "address"
        }
      ],
      "stateMutability": "view",
      "type": "function"
    },
    {
      "inputs": [
        {
          "internalType": "address",
          "name": "from",
          "type": "address"
        },
        {
          "internalType": "address",
          "name": "to",
          "type": "address"
        },
        {
          "internalType": "uint256",
          "name": "tokenId",
          "type": "uint256"
        }
      ],
      "name": "safeTransferFrom",
      "outputs": [],
      "stateMutability": "nonpayable",
      "type": "function"
    },
    {
      "inputs": [
        {
          "internalType": "address",
          "name": "from",
          "type": "address"
        },
        {
          "internalType": "address",
          "name": "to",
          "type": "address"
        },
        {
          "internalType": "uint256",
          "name": "tokenId",
          "type": "uint256"
        },
        {
          "internalType": "bytes",
          "name": "data",
          "type": "bytes"
        }
      ],
      "name": "safeTransferFrom",
      "outputs": [],
      "stateMutability": "nonpayable",
      "type": "function"
    },
    {
      "inputs": [
        {
          "internalType": "address",
          "name": "operator",
          "type": "address"
        },
        {
          "internalType": "bool",
          "name": "approved",
          "type": "bool"
        }
      ],
      "name": "setApprovalForAll",
      "outputs": [],
      "stateMutability": "nonpayable",
      "type": "function"
    },
    {
      "inputs": [
        {
          "internalType": "bytes4",
          "name": "interfaceId",
          "type": "bytes4"
        }
      ],
      "name": "supportsInterface",
      "outputs": [
        {
          "internalType": "bool",
          "name": "",
          "type": "bool"
        }
      ],
      "stateMutability": "view",
      "type": "function"
    },
    {
      "inputs": [],
      "name": "symbol",
      "outputs": [
        {
          "internalType": "string",
          "name": "",
          "type": "string"
        }
      ],
      "stateMutability": "view",
      "type": "function"
    },
    {
      "inputs": [
        {
          "internalType": "uint256",
          "name": "tokenId",
          "type": "uint256"
        }
      ],
      "name": "tokenURI",
      "outputs": [
        {
          "internalType": "string",
          "name": "",
          "type": "string"
        }
      ],
      "stateMutability": "view",
      "type": "function"
    },
    {
      "inputs": [
        {
          "internalType": "address",
          "name": "from",
          "type": "address"
        },
        {
          "internalType": "address",
          "name": "to",
          "type": "address"
        },
        {
          "internalType": "uint256",
          "name": "tokenId",
          "type": "uint256"
        }
      ],
      "name": "transferFrom",
      "outputs": [],
      "stateMutability": "nonpayable",
      "type": "function"
    }
  ],
  "bytecode": "0x60806040523480156200001157600080fd5b5060405162003122380380620031228339818101604052810190620000379190620002c2565b818181600090805190602001906200005192919062000075565b5080600190805190602001906200006a92919062000075565b5050505050620003ac565b828054620000839062000376565b90600052602060002090601f016020900481019282620000a75760008555620000f3565b82601f10620000c257805160ff1916838001178555620000f3565b82800160010185558215620000f3579182015b82811115620000f2578251825591602001919060010190620000d5565b5b50905062000102919062000106565b5090565b5b808211156200012157600081600090555060010162000107565b5090565b6000604051905090565b600080fd5b600080fd5b600080fd5b600080fd5b6000601f19601f8301169050919050565b7f4e487b7100000000000000000000000000000000000000000000000000000000600052604160045260246000fd5b6200018e8262000143565b810181811067ffffffffffffffff82111715620001b057620001af62000154565b5b80604052505050565b6000620001c562000125565b9050620001d3828262000183565b919050565b600067ffffffffffffffff821115620001f657620001f562000154565b5b620002018262000143565b9050602081019050919050565b60005b838110156200022e57808201518184015260208101905062000211565b838111156200023e576000848401525b50505050565b60006200025b6200025584620001d8565b620001b9565b9050828152602081018484840111156200027a57620002796200013e565b5b620002878482856200020e565b509392505050565b600082601f830112620002a757620002a662000139565b5b8151620002b984826020860162000244565b91505092915050565b60008060408385031215620002dc57620002db6200012f565b5b600083015167ffffffffffffffff811115620002fd57620002fc62000134565b5b6200030b858286016200028f565b925050602083015167ffffffffffffffff8111156200032f576200032e62000134565b5b6200033d858286016200028f565b9150509250929050565b7f4e487b7100000000000000000000000000000000000000000000000000000000600052602260045260246000fd5b600060028204905060018216806200038f57607f821691505b60208210811415620003a657620003a562000347565b5b50919050565b612d6680620003bc6000396000f3fe608060405234801561001057600080fd5b506004361061010b5760003560e01c80636352211e116100a2578063b88d4fde11610071578063b88d4fde146102a7578063c87b56dd146102c3578063cf378343146102f3578063e985e9c514610323578063f73140c0146103535761010b565b80636352211e1461020d57806370a082311461023d57806395d89b411461026d578063a22cb4651461028b5761010b565b806323b872dd116100de57806323b872dd146101aa57806334238d93146101c657806342842e0e146101e75780634f1ec292146102035761010b565b806301ffc9a71461011057806306fdde0314610140578063081812fc1461015e578063095ea7b31461018e575b600080fd5b61012a60048036038101906101259190611cea565b61035d565b6040516101379190611d32565b60405180910390f35b61014861043f565b6040516101559190611de6565b60405180910390f35b61017860048036038101906101739190611e3e565b6104d1565b6040516101859190611eac565b60405180910390f35b6101a860048036038101906101a39190611ef3565b610517565b005b6101c460048036038101906101bf9190611f33565b61062f565b005b6101ce61068f565b6040516101de9493929190611f95565b60405180910390f35b61020160048036038101906101fc9190611f33565b610854565b005b61020b610874565b005b61022760048036038101906102229190611e3e565b6108d1565b6040516102349190611eac565b60405180910390f35b61025760048036038101906102529190611fe1565b610983565b604051610264919061200e565b60405180910390f35b610275610a3b565b6040516102829190611de6565b60405180910390f35b6102a560048036038101906102a09190612055565b610acd565b005b6102c160048036038101906102bc91906121ca565b610ae3565b005b6102dd60048036038101906102d89190611e3e565b610b45565b6040516102ea9190611de6565b60405180910390f35b61030d600480360381019061030891906122ee565b610c58565b60405161031a919061200e565b60405180910390f35b61033d6004803603810190610338919061234a565b610d91565b60405161034a9190611d32565b60405180910390f35b61035b610e25565b005b60007f80ac58cd000000000000000000000000000000000000000000000000000000007bffffffffffffffffffffffffffffffffffffffffffffffffffffffff1916827bffffffffffffffffffffffffffffffffffffffffffffffffffffffff1916148061042857507f5b5e139f000000000000000000000000000000000000000000000000000000007bffffffffffffffffffffffffffffffffffffffffffffffffffffffff1916827bffffffffffffffffffffffffffffffffffffffffffffffffffffffff1916145b80610438575061043782610f1e565b5b9050919050565b60606000805461044e906123b9565b80601f016020809104026020016040519081016040528092919081815260200182805461047a906123b9565b80156104c75780601f1061049c576101008083540402835291602001916104c7565b820191906000526020600020905b8154815290600101906020018083116104aa57829003601f168201915b5050505050905090565b60006104dc82610f88565b6004600083815260200190815260200160002060009054906101000a900473ffffffffffffffffffffffffffffffffffffffff169050919050565b6000610522826108d1565b90508073ffffffffffffffffffffffffffffffffffffffff168373ffffffffffffffffffffffffffffffffffffffff161415610593576040517f08c379a000000000000000000000000000000000000000000000000000000000815260040161058a9061245d565b60405180910390fd5b8073ffffffffffffffffffffffffffffffffffffffff166105b2610fd3565b73ffffffffffffffffffffffffffffffffffffffff1614806105e157506105e0816105db610fd3565b610d91565b5b610620576040517f08c379a0000000000000000000000000000000000000000000000000000000008152600401610617906124ef565b60405180910390fd5b61062a8383610fdb565b505050565b61064061063a610fd3565b82611094565b61067f576040517f08c379a000000000000000000000000000000000000000000000000000000000815260040161067690612581565b60405180910390fd5b61068a838383611129565b505050565b60008060006060600860000160003373ffffffffffffffffffffffffffffffffffffffff1673ffffffffffffffffffffffffffffffffffffffff16815260200190815260200160002060000154600860000160003373ffffffffffffffffffffffffffffffffffffffff1673ffffffffffffffffffffffffffffffffffffffff16815260200190815260200160002060010160009054906101000a900460ff16600860000160003373ffffffffffffffffffffffffffffffffffffffff1673ffffffffffffffffffffffffffffffffffffffff16815260200190815260200160002060020154600860000160003373ffffffffffffffffffffffffffffffffffffffff1673ffffffffffffffffffffffffffffffffffffffff1681526020019081526020016000206003018080546107c6906123b9565b80601f01602080910402602001604051908101604052809291908181526020018280546107f2906123b9565b801561083f5780601f106108145761010080835404028352916020019161083f565b820191906000526020600020905b81548152906001019060200180831161082257829003601f168201915b50505050509050935093509350935090919293565b61086f83838360405180602001604052806000815250610ae3565b505050565b600860000160003373ffffffffffffffffffffffffffffffffffffffff1673ffffffffffffffffffffffffffffffffffffffff16815260200190815260200160002060000160008154809291906108ca906125d0565b9190505550565b6000806002600084815260200190815260200160002060009054906101000a900473ffffffffffffffffffffffffffffffffffffffff169050600073ffffffffffffffffffffffffffffffffffffffff168173ffffffffffffffffffffffffffffffffffffffff16141561097a576040517f08c379a000000000000000000000000000000000000000000000000000000000815260040161097190612665565b60405180910390fd5b80915050919050565b60008073ffffffffffffffffffffffffffffffffffffffff168273ffffffffffffffffffffffffffffffffffffffff1614156109f4576040517f08c379a00000000000000000000000000000000000000000000000000000000081526004016109eb906126f7565b60405180910390fd5b600360008373ffffffffffffffffffffffffffffffffffffffff1673ffffffffffffffffffffffffffffffffffffffff168152602001908152602001600020549050919050565b606060018054610a4a906123b9565b80601f0160208091040260200160405190810160405280929190818152602001828054610a76906123b9565b8015610ac35780601f10610a9857610100808354040283529160200191610ac3565b820191906000526020600020905b815481529060010190602001808311610aa657829003601f168201915b5050505050905090565b610adf610ad8610fd3565b8383611390565b5050565b610af4610aee610fd3565b83611094565b610b33576040517f08c379a0000000000000000000000000000000000000000000000000000000008152600401610b2a90612581565b60405180910390fd5b610b3f848484846114fd565b50505050565b6060610b5082610f88565b6000600660008481526020019081526020016000208054610b70906123b9565b80601f0160208091040260200160405190810160405280929190818152602001828054610b9c906123b9565b8015610be95780601f10610bbe57610100808354040283529160200191610be9565b820191906000526020600020905b815481529060010190602001808311610bcc57829003601f168201915b505050505090506000610bfa611559565b9050600081511415610c10578192505050610c53565b600082511115610c45578082604051602001610c2d929190612753565b60405160208183030381529060405292505050610c53565b610c4e84611570565b925050505b919050565b600080610c6560076115d8565b9050610c7184826115e6565b610c7b81846117c0565b610c856007611834565b6001600860000160003373ffffffffffffffffffffffffffffffffffffffff1673ffffffffffffffffffffffffffffffffffffffff16815260200190815260200160002060010160006101000a81548160ff02191690831515021790555080600860000160003373ffffffffffffffffffffffffffffffffffffffff1673ffffffffffffffffffffffffffffffffffffffff1681526020019081526020016000206002018190555082600860000160003373ffffffffffffffffffffffffffffffffffffffff1673ffffffffffffffffffffffffffffffffffffffff1681526020019081526020016000206003019080519060200190610d86929190611bdb565b508091505092915050565b6000600560008473ffffffffffffffffffffffffffffffffffffffff1673ffffffffffffffffffffffffffffffffffffffff16815260200190815260200160002060008373ffffffffffffffffffffffffffffffffffffffff1673ffffffffffffffffffffffffffffffffffffffff16815260200190815260200160002060009054906101000a900460ff16905092915050565b6000604051806080016040528060008152602001600015158152602001600081526020016040518060400160405280600481526020017f4e6f6e6500000000000000000000000000000000000000000000000000000000815250815250905080600860000160003373ffffffffffffffffffffffffffffffffffffffff1673ffffffffffffffffffffffffffffffffffffffff1681526020019081526020016000206000820151816000015560208201518160010160006101000a81548160ff021916908315150217905550604082015181600201556060820151816003019080519060200190610f17929190611bdb565b5090505050565b60007f01ffc9a7000000000000000000000000000000000000000000000000000000007bffffffffffffffffffffffffffffffffffffffffffffffffffffffff1916827bffffffffffffffffffffffffffffffffffffffffffffffffffffffff1916149050919050565b610f918161184a565b610fd0576040517f08c379a0000000000000000000000000000000000000000000000000000000008152600401610fc790612665565b60405180910390fd5b50565b600033905090565b816004600083815260200190815260200160002060006101000a81548173ffffffffffffffffffffffffffffffffffffffff021916908373ffffffffffffffffffffffffffffffffffffffff160217905550808273ffffffffffffffffffffffffffffffffffffffff1661104e836108d1565b73ffffffffffffffffffffffffffffffffffffffff167f8c5be1e5ebec7d5bd14f71427d1e84f3dd0314c0f7b2291e5b200ac8c7c3b92560405160405180910390a45050565b6000806110a0836108d1565b90508073ffffffffffffffffffffffffffffffffffffffff168473ffffffffffffffffffffffffffffffffffffffff1614806110e257506110e18185610d91565b5b8061112057508373ffffffffffffffffffffffffffffffffffffffff16611108846104d1565b73ffffffffffffffffffffffffffffffffffffffff16145b91505092915050565b8273ffffffffffffffffffffffffffffffffffffffff16611149826108d1565b73ffffffffffffffffffffffffffffffffffffffff161461119f576040517f08c379a0000000000000000000000000000000000000000000000000000000008152600401611196906127e9565b60405180910390fd5b600073ffffffffffffffffffffffffffffffffffffffff168273ffffffffffffffffffffffffffffffffffffffff16141561120f576040517f08c379a00000000000000000000000000000000000000000000000000000000081526004016112069061287b565b60405180910390fd5b61121a8383836118b6565b611225600082610fdb565b6001600360008573ffffffffffffffffffffffffffffffffffffffff1673ffffffffffffffffffffffffffffffffffffffff1681526020019081526020016000206000828254611275919061289b565b925050819055506001600360008473ffffffffffffffffffffffffffffffffffffffff1673ffffffffffffffffffffffffffffffffffffffff16815260200190815260200160002060008282546112cc91906128cf565b92505081905550816002600083815260200190815260200160002060006101000a81548173ffffffffffffffffffffffffffffffffffffffff021916908373ffffffffffffffffffffffffffffffffffffffff160217905550808273ffffffffffffffffffffffffffffffffffffffff168473ffffffffffffffffffffffffffffffffffffffff167fddf252ad1be2c89b69c2b068fc378daa952ba7f163c4a11628f55a4df523b3ef60405160405180910390a461138b8383836118bb565b505050565b8173ffffffffffffffffffffffffffffffffffffffff168373ffffffffffffffffffffffffffffffffffffffff1614156113ff576040517f08c379a00000000000000000000000000000000000000000000000000000000081526004016113f690612971565b60405180910390fd5b80600560008573ffffffffffffffffffffffffffffffffffffffff1673ffffffffffffffffffffffffffffffffffffffff16815260200190815260200160002060008473ffffffffffffffffffffffffffffffffffffffff1673ffffffffffffffffffffffffffffffffffffffff16815260200190815260200160002060006101000a81548160ff0219169083151502179055508173ffffffffffffffffffffffffffffffffffffffff168373ffffffffffffffffffffffffffffffffffffffff167f17307eab39ab6107e8899845ad3d59bd9653f200f220920489ca2b5937696c31836040516114f09190611d32565b60405180910390a3505050565b611508848484611129565b611514848484846118c0565b611553576040517f08c379a000000000000000000000000000000000000000000000000000000000815260040161154a90612a03565b60405180910390fd5b50505050565b606060405180602001604052806000815250905090565b606061157b82610f88565b6000611585611559565b905060008151116115a557604051806020016040528060008152506115d0565b806115af84611a57565b6040516020016115c0929190612753565b6040516020818303038152906040525b915050919050565b600081600001549050919050565b600073ffffffffffffffffffffffffffffffffffffffff168273ffffffffffffffffffffffffffffffffffffffff161415611656576040517f08c379a000000000000000000000000000000000000000000000000000000000815260040161164d90612a6f565b60405180910390fd5b61165f8161184a565b1561169f576040517f08c379a000000000000000000000000000000000000000000000000000000000815260040161169690612adb565b60405180910390fd5b6116ab600083836118b6565b6001600360008473ffffffffffffffffffffffffffffffffffffffff1673ffffffffffffffffffffffffffffffffffffffff16815260200190815260200160002060008282546116fb91906128cf565b92505081905550816002600083815260200190815260200160002060006101000a81548173ffffffffffffffffffffffffffffffffffffffff021916908373ffffffffffffffffffffffffffffffffffffffff160217905550808273ffffffffffffffffffffffffffffffffffffffff16600073ffffffffffffffffffffffffffffffffffffffff167fddf252ad1be2c89b69c2b068fc378daa952ba7f163c4a11628f55a4df523b3ef60405160405180910390a46117bc600083836118bb565b5050565b6117c98261184a565b611808576040517f08c379a00000000000000000000000000000000000000000000000000000000081526004016117ff90612b6d565b60405180910390fd5b8060066000848152602001908152602001600020908051906020019061182f929190611bdb565b505050565b6001816000016000828254019250508190555050565b60008073ffffffffffffffffffffffffffffffffffffffff166002600084815260200190815260200160002060009054906101000a900473ffffffffffffffffffffffffffffffffffffffff1673ffffffffffffffffffffffffffffffffffffffff1614159050919050565b505050565b505050565b60006118e18473ffffffffffffffffffffffffffffffffffffffff16611bb8565b15611a4a578373ffffffffffffffffffffffffffffffffffffffff1663150b7a0261190a610fd3565b8786866040518563ffffffff1660e01b815260040161192c9493929190612be2565b602060405180830381600087803b15801561194657600080fd5b505af192505050801561197757506040513d601f19601f820116820180604052508101906119749190612c43565b60015b6119fa573d80600081146119a7576040519150601f19603f3d011682016040523d82523d6000602084013e6119ac565b606091505b506000815114156119f2576040517f08c379a00000000000000000000000000000000000000000000000000000000081526004016119e990612a03565b60405180910390fd5b805181602001fd5b63150b7a0260e01b7bffffffffffffffffffffffffffffffffffffffffffffffffffffffff1916817bffffffffffffffffffffffffffffffffffffffffffffffffffffffff191614915050611a4f565b600190505b949350505050565b60606000821415611a9f576040518060400160405280600181526020017f30000000000000000000000000000000000000000000000000000000000000008152509050611bb3565b600082905060005b60008214611ad1578080611aba906125d0565b915050600a82611aca9190612c9f565b9150611aa7565b60008167ffffffffffffffff811115611aed57611aec61209f565b5b6040519080825280601f01601f191660200182016040528015611b1f5781602001600182028036833780820191505090505b5090505b60008514611bac57600182611b38919061289b565b9150600a85611b479190612cd0565b6030611b5391906128cf565b60f81b818381518110611b6957611b68612d01565b5b60200101907effffffffffffffffffffffffffffffffffffffffffffffffffffffffffffff1916908160001a905350600a85611ba59190612c9f565b9450611b23565b8093505050505b919050565b6000808273ffffffffffffffffffffffffffffffffffffffff163b119050919050565b828054611be7906123b9565b90600052602060002090601f016020900481019282611c095760008555611c50565b82601f10611c2257805160ff1916838001178555611c50565b82800160010185558215611c50579182015b82811115611c4f578251825591602001919060010190611c34565b5b509050611c5d9190611c61565b5090565b5b80821115611c7a576000816000905550600101611c62565b5090565b6000604051905090565b600080fd5b600080fd5b60007fffffffff0000000000000000000000000000000000000000000000000000000082169050919050565b611cc781611c92565b8114611cd257600080fd5b50565b600081359050611ce481611cbe565b92915050565b600060208284031215611d0057611cff611c88565b5b6000611d0e84828501611cd5565b91505092915050565b60008115159050919050565b611d2c81611d17565b82525050565b6000602082019050611d476000830184611d23565b92915050565b600081519050919050565b600082825260208201905092915050565b60005b83811015611d87578082015181840152602081019050611d6c565b83811115611d96576000848401525b50505050565b6000601f19601f8301169050919050565b6000611db882611d4d565b611dc28185611d58565b9350611dd2818560208601611d69565b611ddb81611d9c565b840191505092915050565b60006020820190508181036000830152611e008184611dad565b905092915050565b6000819050919050565b611e1b81611e08565b8114611e2657600080fd5b50565b600081359050611e3881611e12565b92915050565b600060208284031215611e5457611e53611c88565b5b6000611e6284828501611e29565b91505092915050565b600073ffffffffffffffffffffffffffffffffffffffff82169050919050565b6000611e9682611e6b565b9050919050565b611ea681611e8b565b82525050565b6000602082019050611ec16000830184611e9d565b92915050565b611ed081611e8b565b8114611edb57600080fd5b50565b600081359050611eed81611ec7565b92915050565b60008060408385031215611f0a57611f09611c88565b5b6000611f1885828601611ede565b9250506020611f2985828601611e29565b9150509250929050565b600080600060608486031215611f4c57611f4b611c88565b5b6000611f5a86828701611ede565b9350506020611f6b86828701611ede565b9250506040611f7c86828701611e29565b9150509250925092565b611f8f81611e08565b82525050565b6000608082019050611faa6000830187611f86565b611fb76020830186611d23565b611fc46040830185611f86565b8181036060830152611fd68184611dad565b905095945050505050565b600060208284031215611ff757611ff6611c88565b5b600061200584828501611ede565b91505092915050565b60006020820190506120236000830184611f86565b92915050565b61203281611d17565b811461203d57600080fd5b50565b60008135905061204f81612029565b92915050565b6000806040838503121561206c5761206b611c88565b5b600061207a85828601611ede565b925050602061208b85828601612040565b9150509250929050565b600080fd5b600080fd5b7f4e487b7100000000000000000000000000000000000000000000000000000000600052604160045260246000fd5b6120d782611d9c565b810181811067ffffffffffffffff821117156120f6576120f561209f565b5b80604052505050565b6000612109611c7e565b905061211582826120ce565b919050565b600067ffffffffffffffff8211156121355761213461209f565b5b61213e82611d9c565b9050602081019050919050565b82818337600083830152505050565b600061216d6121688461211a565b6120ff565b9050828152602081018484840111156121895761218861209a565b5b61219484828561214b565b509392505050565b600082601f8301126121b1576121b0612095565b5b81356121c184826020860161215a565b91505092915050565b600080600080608085870312156121e4576121e3611c88565b5b60006121f287828801611ede565b945050602061220387828801611ede565b935050604061221487828801611e29565b925050606085013567ffffffffffffffff81111561223557612234611c8d565b5b6122418782880161219c565b91505092959194509250565b600067ffffffffffffffff8211156122685761226761209f565b5b61227182611d9c565b9050602081019050919050565b600061229161228c8461224d565b6120ff565b9050828152602081018484840111156122ad576122ac61209a565b5b6122b884828561214b565b509392505050565b600082601f8301126122d5576122d4612095565b5b81356122e584826020860161227e565b91505092915050565b6000806040838503121561230557612304611c88565b5b600061231385828601611ede565b925050602083013567ffffffffffffffff81111561233457612333611c8d565b5b612340858286016122c0565b9150509250929050565b6000806040838503121561236157612360611c88565b5b600061236f85828601611ede565b925050602061238085828601611ede565b9150509250929050565b7f4e487b7100000000000000000000000000000000000000000000000000000000600052602260045260246000fd5b600060028204905060018216806123d157607f821691505b602082108114156123e5576123e461238a565b5b50919050565b7f4552433732313a20617070726f76616c20746f2063757272656e74206f776e6560008201527f7200000000000000000000000000000000000000000000000000000000000000602082015250565b6000612447602183611d58565b9150612452826123eb565b604082019050919050565b600060208201905081810360008301526124768161243a565b9050919050565b7f4552433732313a20617070726f76652063616c6c6572206973206e6f7420746f60008201527f6b656e206f776e6572206e6f7220617070726f76656420666f7220616c6c0000602082015250565b60006124d9603e83611d58565b91506124e48261247d565b604082019050919050565b60006020820190508181036000830152612508816124cc565b9050919050565b7f4552433732313a2063616c6c6572206973206e6f7420746f6b656e206f776e6560008201527f72206e6f7220617070726f766564000000000000000000000000000000000000602082015250565b600061256b602e83611d58565b91506125768261250f565b604082019050919050565b6000602082019050818103600083015261259a8161255e565b9050919050565b7f4e487b7100000000000000000000000000000000000000000000000000000000600052601160045260246000fd5b60006125db82611e08565b91507fffffffffffffffffffffffffffffffffffffffffffffffffffffffffffffffff82141561260e5761260d6125a1565b5b600182019050919050565b7f4552433732313a20696e76616c696420746f6b656e2049440000000000000000600082015250565b600061264f601883611d58565b915061265a82612619565b602082019050919050565b6000602082019050818103600083015261267e81612642565b9050919050565b7f4552433732313a2061646472657373207a65726f206973206e6f74206120766160008201527f6c6964206f776e65720000000000000000000000000000000000000000000000602082015250565b60006126e1602983611d58565b91506126ec82612685565b604082019050919050565b60006020820190508181036000830152612710816126d4565b9050919050565b600081905092915050565b600061272d82611d4d565b6127378185612717565b9350612747818560208601611d69565b80840191505092915050565b600061275f8285612722565b915061276b8284612722565b91508190509392505050565b7f4552433732313a207472616e736665722066726f6d20696e636f72726563742060008201527f6f776e6572000000000000000000000000000000000000000000000000000000602082015250565b60006127d3602583611d58565b91506127de82612777565b604082019050919050565b60006020820190508181036000830152612802816127c6565b9050919050565b7f4552433732313a207472616e7366657220746f20746865207a65726f2061646460008201527f7265737300000000000000000000000000000000000000000000000000000000602082015250565b6000612865602483611d58565b915061287082612809565b604082019050919050565b6000602082019050818103600083015261289481612858565b9050919050565b60006128a682611e08565b91506128b183611e08565b9250828210156128c4576128c36125a1565b5b828203905092915050565b60006128da82611e08565b91506128e583611e08565b9250827fffffffffffffffffffffffffffffffffffffffffffffffffffffffffffffffff0382111561291a576129196125a1565b5b828201905092915050565b7f4552433732313a20617070726f766520746f2063616c6c657200000000000000600082015250565b600061295b601983611d58565b915061296682612925565b602082019050919050565b6000602082019050818103600083015261298a8161294e565b9050919050565b7f4552433732313a207472616e7366657220746f206e6f6e20455243373231526560008201527f63656976657220696d706c656d656e7465720000000000000000000000000000602082015250565b60006129ed603283611d58565b91506129f882612991565b604082019050919050565b60006020820190508181036000830152612a1c816129e0565b9050919050565b7f4552433732313a206d696e7420746f20746865207a65726f2061646472657373600082015250565b6000612a59602083611d58565b9150612a6482612a23565b602082019050919050565b60006020820190508181036000830152612a8881612a4c565b9050919050565b7f4552433732313a20746f6b656e20616c7265616479206d696e74656400000000600082015250565b6000612ac5601c83611d58565b9150612ad082612a8f565b602082019050919050565b60006020820190508181036000830152612af481612ab8565b9050919050565b7f45524337323155524953746f726167653a2055524920736574206f66206e6f6e60008201527f6578697374656e7420746f6b656e000000000000000000000000000000000000602082015250565b6000612b57602e83611d58565b9150612b6282612afb565b604082019050919050565b60006020820190508181036000830152612b8681612b4a565b9050919050565b600081519050919050565b600082825260208201905092915050565b6000612bb482612b8d565b612bbe8185612b98565b9350612bce818560208601611d69565b612bd781611d9c565b840191505092915050565b6000608082019050612bf76000830187611e9d565b612c046020830186611e9d565b612c116040830185611f86565b8181036060830152612c238184612ba9565b905095945050505050565b600081519050612c3d81611cbe565b92915050565b600060208284031215612c5957612c58611c88565b5b6000612c6784828501612c2e565b91505092915050565b7f4e487b7100000000000000000000000000000000000000000000000000000000600052601260045260246000fd5b6000612caa82611e08565b9150612cb583611e08565b925082612cc557612cc4612c70565b5b828204905092915050565b6000612cdb82611e08565b9150612ce683611e08565b925082612cf657612cf5612c70565b5b828206905092915050565b7f4e487b7100000000000000000000000000000000000000000000000000000000600052603260045260246000fdfea26469706673582212206a438a5765309eac56509f4f19b0d371b240a4c7076dc567f2db74894a84818f64736f6c63430008090033",
  "linkReferences": {},
  "deployedLinkReferences": {}
}