{
  "_format": "hh-sol-artifact-1",
  "contractName": "StudentSocietyDAO",
  "sourceName": "contracts/StudentSocietyDAO.sol",
  "abi": [
    {
      "inputs": [],
      "stateMutability": "nonpayable",
      "type": "constructor"
    },
    {
      "anonymous": false,
      "inputs": [
        {
          "indexed": false,
          "internalType": "uint32",
          "name": "proposalIndex",
          "type": "uint32"
        }
      ],
      "name": "ProposalInitiated",
      "type": "event"
    },
    {
      "inputs": [],
      "name": "UserToken",
      "outputs": [
        {
          "internalType": "contract MyERC20",
          "name": "",
          "type": "address"
        }
      ],
      "stateMutability": "view",
      "type": "function"
    },
    {
      "inputs": [
        {
          "internalType": "string",
          "name": "ProposalContent",
          "type": "string"
        }
      ],
      "name": "addNewProposal",
      "outputs": [],
      "stateMutability": "nonpayable",
      "type": "function"
    },
    {
      "inputs": [
        {
          "internalType": "uint256",
          "name": "content",
          "type": "uint256"
        },
        {
          "internalType": "uint256",
          "name": "proposalIndex",
          "type": "uint256"
        }
      ],
      "name": "addNewVote",
      "outputs": [],
      "stateMutability": "nonpayable",
      "type": "function"
    },
    {
      "inputs": [],
      "name": "getAllProposalIndex",
      "outputs": [
        {
          "internalType": "uint256[]",
          "name": "",
          "type": "uint256[]"
        }
      ],
      "stateMutability": "view",
      "type": "function"
    },
    {
      "inputs": [
        {
          "internalType": "uint256",
          "name": "index",
          "type": "uint256"
        },
        {
          "internalType": "uint256",
          "name": "nowTime",
          "type": "uint256"
        }
      ],
      "name": "getProposalInformation",
      "outputs": [
        {
          "internalType": "address",
          "name": "",
          "type": "address"
        },
        {
          "internalType": "string",
          "name": "",
          "type": "string"
        },
        {
          "internalType": "uint256",
          "name": "",
          "type": "uint256"
        },
        {
          "internalType": "uint256",
          "name": "",
          "type": "uint256"
        },
        {
          "internalType": "uint256",
          "name": "",
          "type": "uint256"
        },
        {
          "internalType": "uint256[2]",
          "name": "",
          "type": "uint256[2]"
        },
        {
          "internalType": "bool",
          "name": "",
          "type": "bool"
        }
      ],
      "stateMutability": "view",
      "type": "function"
    },
    {
      "inputs": [
        {
          "internalType": "uint256",
          "name": "proposalIndex",
          "type": "uint256"
        }
      ],
      "name": "getProposalReward",
      "outputs": [],
      "stateMutability": "nonpayable",
      "type": "function"
    },
    {
      "inputs": [
        {
          "internalType": "uint256",
          "name": "proposalIndex",
          "type": "uint256"
        },
        {
          "internalType": "uint256",
          "name": "nowTime",
          "type": "uint256"
        }
      ],
      "name": "getProposalStatus",
      "outputs": [
        {
          "internalType": "uint256",
          "name": "",
          "type": "uint256"
        }
      ],
      "stateMutability": "view",
      "type": "function"
    }
  ],
  "bytecode": "0x60806040523480156200001157600080fd5b5060405162000020906200008f565b6200002b906200014e565b604051809103906000f08015801562000048573d6000803e3d6000fd5b50600660006101000a81548173ffffffffffffffffffffffffffffffffffffffff021916908373ffffffffffffffffffffffffffffffffffffffff16021790555062000185565b611990806200169b83390190565b600082825260208201905092915050565b7f55736572546f6b656e0000000000000000000000000000000000000000000000600082015250565b6000620000e66009836200009d565b9150620000f382620000ae565b602082019050919050565b7f5554000000000000000000000000000000000000000000000000000000000000600082015250565b6000620001366002836200009d565b91506200014382620000fe565b602082019050919050565b600060408201905081810360008301526200016981620000d7565b905081810360208301526200017e8162000127565b9050919050565b61150680620001956000396000f3fe608060405234801561001057600080fd5b506004361061007d5760003560e01c8063b8e938a31161005b578063b8e938a3146100f2578063c6d05fd41461010e578063e06f379a1461012a578063e15baf771461015a5761007d565b8063065e1e3e146100825780630aaf333e1461009e5780632137671b146100bc575b600080fd5b61009c60048036038101906100979190610bcd565b610178565b005b6100a6610392565b6040516100b39190610c8c565b60405180910390f35b6100d660048036038101906100d19190610bcd565b6103b8565b6040516100e99796959493929190610e36565b60405180910390f35b61010c60048036038101906101079190610ead565b61051d565b005b61012860048036038101906101239190610f3f565b610655565b005b610144600480360381019061013f9190610bcd565b6109d2565b6040516101519190610f8c565b60405180910390f35b610162610a49565b60405161016f919061103e565b60405180910390f35b6064600660009054906101000a900473ffffffffffffffffffffffffffffffffffffffff1673ffffffffffffffffffffffffffffffffffffffff166370a08231336040518263ffffffff1660e01b81526004016101d59190611060565b60206040518083038186803b1580156101ed57600080fd5b505afa158015610201573d6000803e3d6000fd5b505050506040513d601f19601f820116820180604052508101906102259190611090565b1015610266576040517f08c379a000000000000000000000000000000000000000000000000000000000815260040161025d9061112f565b60405180910390fd5b600660009054906101000a900473ffffffffffffffffffffffffffffffffffffffff1673ffffffffffffffffffffffffffffffffffffffff166323b872dd333060646040518463ffffffff1660e01b81526004016102c69392919061118a565b602060405180830381600087803b1580156102e057600080fd5b505af11580156102f4573d6000803e3d6000fd5b505050506040513d601f19601f8201168201806040525081019061031891906111ed565b50600182141561035557600080016000828152602001908152602001600020600601600081548092919061034b90611249565b919050555061038e565b600282141561038d57600080016000828152602001908152602001600020600701600081548092919061038790611249565b91905055505b5b5050565b600660009054906101000a900473ffffffffffffffffffffffffffffffffffffffff1681565b6000606060008060006103c9610ac8565b6000806103d68a8a6109d2565b905060008060000160008c8152602001908152602001600020905060008160010160009054906101000a900473ffffffffffffffffffffffffffffffffffffffff169050600082600201805461042b906112c1565b80601f0160208091040260200160405190810160405280929190818152602001828054610457906112c1565b80156104a45780601f10610479576101008083540402835291602001916104a4565b820191906000526020600020905b81548152906001019060200180831161048757829003601f168201915b5050505050905060008360030154905060008460040154905060006040518060400160405280876006015481526020018760070154815250905060008660080160009054906101000a900460ff169050858585858b86869e509e509e509e509e509e509e50505050505050505092959891949750929550565b600160008001600083815260200190815260200160002060080160006101000a81548160ff021916908315150217905550600660009054906101000a900473ffffffffffffffffffffffffffffffffffffffff1673ffffffffffffffffffffffffffffffffffffffff1663a9059cbb336103e8606460008001600087815260200190815260200160002060060154600080016000888152602001908152602001600020600701546105ce91906112f3565b6105d89190611349565b6105e291906112f3565b6040518363ffffffff1660e01b81526004016105ff9291906113a3565b602060405180830381600087803b15801561061957600080fd5b505af115801561062d573d6000803e3d6000fd5b505050506040513d601f19601f8201168201806040525081019061065191906111ed565b5050565b6103e8600660009054906101000a900473ffffffffffffffffffffffffffffffffffffffff1673ffffffffffffffffffffffffffffffffffffffff166370a08231336040518263ffffffff1660e01b81526004016106b39190611060565b60206040518083038186803b1580156106cb57600080fd5b505afa1580156106df573d6000803e3d6000fd5b505050506040513d601f19601f820116820180604052508101906107039190611090565b1015610744576040517f08c379a000000000000000000000000000000000000000000000000000000000815260040161073b9061143e565b60405180910390fd5b600660009054906101000a900473ffffffffffffffffffffffffffffffffffffffff1673ffffffffffffffffffffffffffffffffffffffff166323b872dd33306103e86040518463ffffffff1660e01b81526004016107a593929190611499565b602060405180830381600087803b1580156107bf57600080fd5b505af11580156107d3573d6000803e3d6000fd5b505050506040513d601f19601f820116820180604052508101906107f791906111ed565b5060006108076000600201610aa4565b905060006040518061012001604052808381526020013373ffffffffffffffffffffffffffffffffffffffff16815260200185858080601f016020809104026020016040519081016040528093929190818152602001838380828437600081840152601f19601f82011690508083019250505050505050815260200142815260200160784261089691906112f3565b8152602001600081526020016000815260200160008152602001600015158152509050806000800160008481526020019081526020016000206000820151816000015560208201518160010160006101000a81548173ffffffffffffffffffffffffffffffffffffffff021916908373ffffffffffffffffffffffffffffffffffffffff160217905550604082015181600201908051906020019061093c929190610aea565b50606082015181600301556080820151816004015560a0820151816005015560c0820151816006015560e082015181600701556101008201518160080160006101000a81548160ff02191690831515021790555090505060006001018290806001815401808255809150506001900390600052602060002001600090919091909150556109cc6000600201610ab2565b50505050565b600080600001600084815260200190815260200160002060040154821115610a3e5760008001600084815260200190815260200160002060070154600080016000858152602001908152602001600020600601541115610a355760019050610a43565b60029050610a43565b600090505b92915050565b60606000600101805480602002602001604051908101604052809291908181526020018280548015610a9a57602002820191906000526020600020905b815481526020019060010190808311610a86575b5050505050905090565b600081600001549050919050565b6001816000016000828254019250508190555050565b6040518060400160405280600290602082028036833780820191505090505090565b828054610af6906112c1565b90600052602060002090601f016020900481019282610b185760008555610b5f565b82601f10610b3157805160ff1916838001178555610b5f565b82800160010185558215610b5f579182015b82811115610b5e578251825591602001919060010190610b43565b5b509050610b6c9190610b70565b5090565b5b80821115610b89576000816000905550600101610b71565b5090565b600080fd5b600080fd5b6000819050919050565b610baa81610b97565b8114610bb557600080fd5b50565b600081359050610bc781610ba1565b92915050565b60008060408385031215610be457610be3610b8d565b5b6000610bf285828601610bb8565b9250506020610c0385828601610bb8565b9150509250929050565b600073ffffffffffffffffffffffffffffffffffffffff82169050919050565b6000819050919050565b6000610c52610c4d610c4884610c0d565b610c2d565b610c0d565b9050919050565b6000610c6482610c37565b9050919050565b6000610c7682610c59565b9050919050565b610c8681610c6b565b82525050565b6000602082019050610ca16000830184610c7d565b92915050565b6000610cb282610c0d565b9050919050565b610cc281610ca7565b82525050565b600081519050919050565b600082825260208201905092915050565b60005b83811015610d02578082015181840152602081019050610ce7565b83811115610d11576000848401525b50505050565b6000601f19601f8301169050919050565b6000610d3382610cc8565b610d3d8185610cd3565b9350610d4d818560208601610ce4565b610d5681610d17565b840191505092915050565b610d6a81610b97565b82525050565b600060029050919050565b600081905092915050565b6000819050919050565b610d9981610b97565b82525050565b6000610dab8383610d90565b60208301905092915050565b6000602082019050919050565b610dcd81610d70565b610dd78184610d7b565b9250610de282610d86565b8060005b83811015610e13578151610dfa8782610d9f565b9650610e0583610db7565b925050600181019050610de6565b505050505050565b60008115159050919050565b610e3081610e1b565b82525050565b600061010082019050610e4c600083018a610cb9565b8181036020830152610e5e8189610d28565b9050610e6d6040830188610d61565b610e7a6060830187610d61565b610e876080830186610d61565b610e9460a0830185610dc4565b610ea160e0830184610e27565b98975050505050505050565b600060208284031215610ec357610ec2610b8d565b5b6000610ed184828501610bb8565b91505092915050565b600080fd5b600080fd5b600080fd5b60008083601f840112610eff57610efe610eda565b5b8235905067ffffffffffffffff811115610f1c57610f1b610edf565b5b602083019150836001820283011115610f3857610f37610ee4565b5b9250929050565b60008060208385031215610f5657610f55610b8d565b5b600083013567ffffffffffffffff811115610f7457610f73610b92565b5b610f8085828601610ee9565b92509250509250929050565b6000602082019050610fa16000830184610d61565b92915050565b600081519050919050565b600082825260208201905092915050565b6000819050602082019050919050565b6000602082019050919050565b6000610feb82610fa7565b610ff58185610fb2565b935061100083610fc3565b8060005b838110156110315781516110188882610d9f565b975061102383610fd3565b925050600181019050611004565b5085935050505092915050565b600060208201905081810360008301526110588184610fe0565b905092915050565b60006020820190506110756000830184610cb9565b92915050565b60008151905061108a81610ba1565b92915050565b6000602082840312156110a6576110a5610b8d565b5b60006110b48482850161107b565b91505092915050565b7f596f7520646f6e2774206861766520656e6f75676820746f6b656e20746f207660008201527f6f74650000000000000000000000000000000000000000000000000000000000602082015250565b6000611119602383610cd3565b9150611124826110bd565b604082019050919050565b600060208201905081810360008301526111488161110c565b9050919050565b6000819050919050565b600061117461116f61116a8461114f565b610c2d565b610b97565b9050919050565b61118481611159565b82525050565b600060608201905061119f6000830186610cb9565b6111ac6020830185610cb9565b6111b9604083018461117b565b949350505050565b6111ca81610e1b565b81146111d557600080fd5b50565b6000815190506111e7816111c1565b92915050565b60006020828403121561120357611202610b8d565b5b6000611211848285016111d8565b91505092915050565b7f4e487b7100000000000000000000000000000000000000000000000000000000600052601160045260246000fd5b600061125482610b97565b91507fffffffffffffffffffffffffffffffffffffffffffffffffffffffffffffffff8214156112875761128661121a565b5b600182019050919050565b7f4e487b7100000000000000000000000000000000000000000000000000000000600052602260045260246000fd5b600060028204905060018216806112d957607f821691505b602082108114156112ed576112ec611292565b5b50919050565b60006112fe82610b97565b915061130983610b97565b9250827fffffffffffffffffffffffffffffffffffffffffffffffffffffffffffffffff0382111561133e5761133d61121a565b5b828201905092915050565b600061135482610b97565b915061135f83610b97565b9250817fffffffffffffffffffffffffffffffffffffffffffffffffffffffffffffffff04831182151516156113985761139761121a565b5b828202905092915050565b60006040820190506113b86000830185610cb9565b6113c56020830184610d61565b9392505050565b7f596f7520646f6e2774206861766520656e6f75676820746f6b656e20746f206960008201527f6e69746961746520612070726f706f73616c0000000000000000000000000000602082015250565b6000611428603283610cd3565b9150611433826113cc565b604082019050919050565b600060208201905081810360008301526114578161141b565b9050919050565b6000819050919050565b600061148361147e6114798461145e565b610c2d565b610b97565b9050919050565b61149381611468565b82525050565b60006060820190506114ae6000830186610cb9565b6114bb6020830185610cb9565b6114c8604083018461148a565b94935050505056fea26469706673582212202a3ea73336b6d948326fc0d50d2caebd4a06180b0c97ac8fb60636aa2988e2e764736f6c6343000809003360806040523480156200001157600080fd5b5060405162001990380380620019908339818101604052810190620000379190620002c2565b818181600390805190602001906200005192919062000075565b5080600490805190602001906200006a92919062000075565b5050505050620003ac565b828054620000839062000376565b90600052602060002090601f016020900481019282620000a75760008555620000f3565b82601f10620000c257805160ff1916838001178555620000f3565b82800160010185558215620000f3579182015b82811115620000f2578251825591602001919060010190620000d5565b5b50905062000102919062000106565b5090565b5b808211156200012157600081600090555060010162000107565b5090565b6000604051905090565b600080fd5b600080fd5b600080fd5b600080fd5b6000601f19601f8301169050919050565b7f4e487b7100000000000000000000000000000000000000000000000000000000600052604160045260246000fd5b6200018e8262000143565b810181811067ffffffffffffffff82111715620001b057620001af62000154565b5b80604052505050565b6000620001c562000125565b9050620001d3828262000183565b919050565b600067ffffffffffffffff821115620001f657620001f562000154565b5b620002018262000143565b9050602081019050919050565b60005b838110156200022e57808201518184015260208101905062000211565b838111156200023e576000848401525b50505050565b60006200025b6200025584620001d8565b620001b9565b9050828152602081018484840111156200027a57620002796200013e565b5b620002878482856200020e565b509392505050565b600082601f830112620002a757620002a662000139565b5b8151620002b984826020860162000244565b91505092915050565b60008060408385031215620002dc57620002db6200012f565b5b600083015167ffffffffffffffff811115620002fd57620002fc62000134565b5b6200030b858286016200028f565b925050602083015167ffffffffffffffff8111156200032f576200032e62000134565b5b6200033d858286016200028f565b9150509250929050565b7f4e487b7100000000000000000000000000000000000000000000000000000000600052602260045260246000fd5b600060028204905060018216806200038f57607f821691505b60208210811415620003a657620003a562000347565b5b50919050565b6115d480620003bc6000396000f3fe608060405234801561001057600080fd5b50600436106100b45760003560e01c806370a082311161007157806370a08231146101a35780638589cbdf146101d357806395d89b41146101dd578063a457c2d7146101fb578063a9059cbb1461022b578063dd62ed3e1461025b576100b4565b806306fdde03146100b9578063095ea7b3146100d757806318160ddd1461010757806323b872dd14610125578063313ce567146101555780633950935114610173575b600080fd5b6100c161028b565b6040516100ce9190610d90565b60405180910390f35b6100f160048036038101906100ec9190610e4b565b61031d565b6040516100fe9190610ea6565b60405180910390f35b61010f610340565b60405161011c9190610ed0565b60405180910390f35b61013f600480360381019061013a9190610eeb565b61034a565b60405161014c9190610ea6565b60405180910390f35b61015d610379565b60405161016a9190610f5a565b60405180910390f35b61018d60048036038101906101889190610e4b565b610382565b60405161019a9190610ea6565b60405180910390f35b6101bd60048036038101906101b89190610f75565b6103b9565b6040516101ca9190610ed0565b60405180910390f35b6101db610401565b005b6101e56104fa565b6040516101f29190610d90565b60405180910390f35b61021560048036038101906102109190610e4b565b61058c565b6040516102229190610ea6565b60405180910390f35b61024560048036038101906102409190610e4b565b610603565b6040516102529190610ea6565b60405180910390f35b61027560048036038101906102709190610fa2565b610626565b6040516102829190610ed0565b60405180910390f35b60606003805461029a90611011565b80601f01602080910402602001604051908101604052809291908181526020018280546102c690611011565b80156103135780601f106102e857610100808354040283529160200191610313565b820191906000526020600020905b8154815290600101906020018083116102f657829003601f168201915b5050505050905090565b6000806103286106ad565b90506103358185856106b5565b600191505092915050565b6000600254905090565b6000806103556106ad565b9050610362858285610880565b61036d85858561090c565b60019150509392505050565b60006012905090565b60008061038d6106ad565b90506103ae81858561039f8589610626565b6103a99190611072565b6106b5565b600191505092915050565b60008060008373ffffffffffffffffffffffffffffffffffffffff1673ffffffffffffffffffffffffffffffffffffffff168152602001908152602001600020549050919050565b60001515600560003373ffffffffffffffffffffffffffffffffffffffff1673ffffffffffffffffffffffffffffffffffffffff16815260200190815260200160002060009054906101000a900460ff16151514610494576040517f08c379a000000000000000000000000000000000000000000000000000000000815260040161048b9061113a565b60405180910390fd5b6104a033612710610b8d565b6001600560003373ffffffffffffffffffffffffffffffffffffffff1673ffffffffffffffffffffffffffffffffffffffff16815260200190815260200160002060006101000a81548160ff021916908315150217905550565b60606004805461050990611011565b80601f016020809104026020016040519081016040528092919081815260200182805461053590611011565b80156105825780601f1061055757610100808354040283529160200191610582565b820191906000526020600020905b81548152906001019060200180831161056557829003601f168201915b5050505050905090565b6000806105976106ad565b905060006105a58286610626565b9050838110156105ea576040517f08c379a00000000000000000000000000000000000000000000000000000000081526004016105e1906111cc565b60405180910390fd5b6105f782868684036106b5565b60019250505092915050565b60008061060e6106ad565b905061061b81858561090c565b600191505092915050565b6000600160008473ffffffffffffffffffffffffffffffffffffffff1673ffffffffffffffffffffffffffffffffffffffff16815260200190815260200160002060008373ffffffffffffffffffffffffffffffffffffffff1673ffffffffffffffffffffffffffffffffffffffff16815260200190815260200160002054905092915050565b600033905090565b600073ffffffffffffffffffffffffffffffffffffffff168373ffffffffffffffffffffffffffffffffffffffff161415610725576040517f08c379a000000000000000000000000000000000000000000000000000000000815260040161071c9061125e565b60405180910390fd5b600073ffffffffffffffffffffffffffffffffffffffff168273ffffffffffffffffffffffffffffffffffffffff161415610795576040517f08c379a000000000000000000000000000000000000000000000000000000000815260040161078c906112f0565b60405180910390fd5b80600160008573ffffffffffffffffffffffffffffffffffffffff1673ffffffffffffffffffffffffffffffffffffffff16815260200190815260200160002060008473ffffffffffffffffffffffffffffffffffffffff1673ffffffffffffffffffffffffffffffffffffffff168152602001908152602001600020819055508173ffffffffffffffffffffffffffffffffffffffff168373ffffffffffffffffffffffffffffffffffffffff167f8c5be1e5ebec7d5bd14f71427d1e84f3dd0314c0f7b2291e5b200ac8c7c3b925836040516108739190610ed0565b60405180910390a3505050565b600061088c8484610626565b90507fffffffffffffffffffffffffffffffffffffffffffffffffffffffffffffffff811461090657818110156108f8576040517f08c379a00000000000000000000000000000000000000000000000000000000081526004016108ef9061135c565b60405180910390fd5b61090584848484036106b5565b5b50505050565b600073ffffffffffffffffffffffffffffffffffffffff168373ffffffffffffffffffffffffffffffffffffffff16141561097c576040517f08c379a0000000000000000000000000000000000000000000000000000000008152600401610973906113ee565b60405180910390fd5b600073ffffffffffffffffffffffffffffffffffffffff168273ffffffffffffffffffffffffffffffffffffffff1614156109ec576040517f08c379a00000000000000000000000000000000000000000000000000000000081526004016109e390611480565b60405180910390fd5b6109f7838383610ced565b60008060008573ffffffffffffffffffffffffffffffffffffffff1673ffffffffffffffffffffffffffffffffffffffff16815260200190815260200160002054905081811015610a7d576040517f08c379a0000000000000000000000000000000000000000000000000000000008152600401610a7490611512565b60405180910390fd5b8181036000808673ffffffffffffffffffffffffffffffffffffffff1673ffffffffffffffffffffffffffffffffffffffff16815260200190815260200160002081905550816000808573ffffffffffffffffffffffffffffffffffffffff1673ffffffffffffffffffffffffffffffffffffffff1681526020019081526020016000206000828254610b109190611072565b925050819055508273ffffffffffffffffffffffffffffffffffffffff168473ffffffffffffffffffffffffffffffffffffffff167fddf252ad1be2c89b69c2b068fc378daa952ba7f163c4a11628f55a4df523b3ef84604051610b749190610ed0565b60405180910390a3610b87848484610cf2565b50505050565b600073ffffffffffffffffffffffffffffffffffffffff168273ffffffffffffffffffffffffffffffffffffffff161415610bfd576040517f08c379a0000000000000000000000000000000000000000000000000000000008152600401610bf49061157e565b60405180910390fd5b610c0960008383610ced565b8060026000828254610c1b9190611072565b92505081905550806000808473ffffffffffffffffffffffffffffffffffffffff1673ffffffffffffffffffffffffffffffffffffffff1681526020019081526020016000206000828254610c709190611072565b925050819055508173ffffffffffffffffffffffffffffffffffffffff16600073ffffffffffffffffffffffffffffffffffffffff167fddf252ad1be2c89b69c2b068fc378daa952ba7f163c4a11628f55a4df523b3ef83604051610cd59190610ed0565b60405180910390a3610ce960008383610cf2565b5050565b505050565b505050565b600081519050919050565b600082825260208201905092915050565b60005b83811015610d31578082015181840152602081019050610d16565b83811115610d40576000848401525b50505050565b6000601f19601f8301169050919050565b6000610d6282610cf7565b610d6c8185610d02565b9350610d7c818560208601610d13565b610d8581610d46565b840191505092915050565b60006020820190508181036000830152610daa8184610d57565b905092915050565b600080fd5b600073ffffffffffffffffffffffffffffffffffffffff82169050919050565b6000610de282610db7565b9050919050565b610df281610dd7565b8114610dfd57600080fd5b50565b600081359050610e0f81610de9565b92915050565b6000819050919050565b610e2881610e15565b8114610e3357600080fd5b50565b600081359050610e4581610e1f565b92915050565b60008060408385031215610e6257610e61610db2565b5b6000610e7085828601610e00565b9250506020610e8185828601610e36565b9150509250929050565b60008115159050919050565b610ea081610e8b565b82525050565b6000602082019050610ebb6000830184610e97565b92915050565b610eca81610e15565b82525050565b6000602082019050610ee56000830184610ec1565b92915050565b600080600060608486031215610f0457610f03610db2565b5b6000610f1286828701610e00565b9350506020610f2386828701610e00565b9250506040610f3486828701610e36565b9150509250925092565b600060ff82169050919050565b610f5481610f3e565b82525050565b6000602082019050610f6f6000830184610f4b565b92915050565b600060208284031215610f8b57610f8a610db2565b5b6000610f9984828501610e00565b91505092915050565b60008060408385031215610fb957610fb8610db2565b5b6000610fc785828601610e00565b9250506020610fd885828601610e00565b9150509250929050565b7f4e487b7100000000000000000000000000000000000000000000000000000000600052602260045260246000fd5b6000600282049050600182168061102957607f821691505b6020821081141561103d5761103c610fe2565b5b50919050565b7f4e487b7100000000000000000000000000000000000000000000000000000000600052601160045260246000fd5b600061107d82610e15565b915061108883610e15565b9250827fffffffffffffffffffffffffffffffffffffffffffffffffffffffffffffffff038211156110bd576110bc611043565b5b828201905092915050565b7f596f75206861766520616c72656164792072656365697665642074686520746f60008201527f6b656e0000000000000000000000000000000000000000000000000000000000602082015250565b6000611124602383610d02565b915061112f826110c8565b604082019050919050565b6000602082019050818103600083015261115381611117565b9050919050565b7f45524332303a2064656372656173656420616c6c6f77616e63652062656c6f7760008201527f207a65726f000000000000000000000000000000000000000000000000000000602082015250565b60006111b6602583610d02565b91506111c18261115a565b604082019050919050565b600060208201905081810360008301526111e5816111a9565b9050919050565b7f45524332303a20617070726f76652066726f6d20746865207a65726f2061646460008201527f7265737300000000000000000000000000000000000000000000000000000000602082015250565b6000611248602483610d02565b9150611253826111ec565b604082019050919050565b600060208201905081810360008301526112778161123b565b9050919050565b7f45524332303a20617070726f766520746f20746865207a65726f20616464726560008201527f7373000000000000000000000000000000000000000000000000000000000000602082015250565b60006112da602283610d02565b91506112e58261127e565b604082019050919050565b60006020820190508181036000830152611309816112cd565b9050919050565b7f45524332303a20696e73756666696369656e7420616c6c6f77616e6365000000600082015250565b6000611346601d83610d02565b915061135182611310565b602082019050919050565b6000602082019050818103600083015261137581611339565b9050919050565b7f45524332303a207472616e736665722066726f6d20746865207a65726f20616460008201527f6472657373000000000000000000000000000000000000000000000000000000602082015250565b60006113d8602583610d02565b91506113e38261137c565b604082019050919050565b60006020820190508181036000830152611407816113cb565b9050919050565b7f45524332303a207472616e7366657220746f20746865207a65726f206164647260008201527f6573730000000000000000000000000000000000000000000000000000000000602082015250565b600061146a602383610d02565b91506114758261140e565b604082019050919050565b600060208201905081810360008301526114998161145d565b9050919050565b7f45524332303a207472616e7366657220616d6f756e742065786365656473206260008201527f616c616e63650000000000000000000000000000000000000000000000000000602082015250565b60006114fc602683610d02565b9150611507826114a0565b604082019050919050565b6000602082019050818103600083015261152b816114ef565b9050919050565b7f45524332303a206d696e7420746f20746865207a65726f206164647265737300600082015250565b6000611568601f83610d02565b915061157382611532565b602082019050919050565b600060208201905081810360008301526115978161155b565b905091905056fea2646970667358221220d650cdcf645351407e34589ebddfaa67f1f3844443e81b157673c289c34a838564736f6c63430008090033",
  "linkReferences": {},
  "deployedLinkReferences": {}
}