{
  "_format": "hh-sol-artifact-1",
  "contractName": "StudentSocietyDAO",
  "sourceName": "contracts/StudentSocietyDAO.sol",
  "abi": [
    {
      "inputs": [],
      "stateMutability": "nonpayable",
      "type": "constructor"
    },
    {
      "anonymous": false,
      "inputs": [
        {
          "indexed": false,
          "internalType": "uint32",
          "name": "proposalIndex",
          "type": "uint32"
        }
      ],
      "name": "ProposalInitiated",
      "type": "event"
    },
    {
      "inputs": [],
      "name": "UserToken",
      "outputs": [
        {
          "internalType": "contract MyERC20",
          "name": "",
          "type": "address"
        }
      ],
      "stateMutability": "view",
      "type": "function"
    },
    {
      "inputs": [
        {
          "internalType": "string",
          "name": "ProposalContent",
          "type": "string"
        }
      ],
      "name": "addNewProposal",
      "outputs": [],
      "stateMutability": "nonpayable",
      "type": "function"
    },
    {
      "inputs": [
        {
          "internalType": "uint256",
          "name": "content",
          "type": "uint256"
        },
        {
          "internalType": "uint256",
          "name": "proposalIndex",
          "type": "uint256"
        }
      ],
      "name": "addNewVote",
      "outputs": [],
      "stateMutability": "nonpayable",
      "type": "function"
    },
    {
      "inputs": [],
      "name": "getAllProposalIndex",
      "outputs": [
        {
          "internalType": "uint256[]",
          "name": "",
          "type": "uint256[]"
        }
      ],
      "stateMutability": "view",
      "type": "function"
    },
    {
      "inputs": [
        {
          "internalType": "uint256",
          "name": "index",
          "type": "uint256"
        },
        {
          "internalType": "uint256",
          "name": "nowTime",
          "type": "uint256"
        }
      ],
      "name": "getProposalInformation",
      "outputs": [
        {
          "internalType": "address",
          "name": "",
          "type": "address"
        },
        {
          "internalType": "string",
          "name": "",
          "type": "string"
        },
        {
          "internalType": "uint256",
          "name": "",
          "type": "uint256"
        },
        {
          "internalType": "uint256",
          "name": "",
          "type": "uint256"
        },
        {
          "internalType": "uint256",
          "name": "",
          "type": "uint256"
        },
        {
          "internalType": "uint256",
          "name": "",
          "type": "uint256"
        },
        {
          "internalType": "uint256",
          "name": "",
          "type": "uint256"
        }
      ],
      "stateMutability": "view",
      "type": "function"
    },
    {
      "inputs": [
        {
          "internalType": "uint256",
          "name": "proposalIndex",
          "type": "uint256"
        },
        {
          "internalType": "uint256",
          "name": "nowTime",
          "type": "uint256"
        }
      ],
      "name": "getProposalStatus",
      "outputs": [
        {
          "internalType": "uint256",
          "name": "",
          "type": "uint256"
        }
      ],
      "stateMutability": "view",
      "type": "function"
    }
  ],
  "bytecode": "0x60806040523480156200001157600080fd5b5060405162000020906200008f565b6200002b906200014e565b604051809103906000f08015801562000048573d6000803e3d6000fd5b50600660006101000a81548173ffffffffffffffffffffffffffffffffffffffff021916908373ffffffffffffffffffffffffffffffffffffffff16021790555062000185565b611990806200137083390190565b600082825260208201905092915050565b7f55736572546f6b656e0000000000000000000000000000000000000000000000600082015250565b6000620000e66009836200009d565b9150620000f382620000ae565b602082019050919050565b7f5554000000000000000000000000000000000000000000000000000000000000600082015250565b6000620001366002836200009d565b91506200014382620000fe565b602082019050919050565b600060408201905081810360008301526200016981620000d7565b905081810360208301526200017e8162000127565b9050919050565b6111db80620001956000396000f3fe608060405234801561001057600080fd5b50600436106100625760003560e01c8063065e1e3e146100675780630aaf333e146100835780632137671b146100a1578063c6d05fd4146100d7578063e06f379a146100f3578063e15baf7714610123575b600080fd5b610081600480360381019061007c91906109e6565b610141565b005b61008b61035b565b6040516100989190610aa5565b60405180910390f35b6100bb60048036038101906100b691906109e6565b610381565b6040516100ce9796959493929190610b89565b60405180910390f35b6100f160048036038101906100ec9190610c64565b6104ba565b005b61010d600480360381019061010891906109e6565b61080d565b60405161011a9190610cb1565b60405180910390f35b61012b610884565b6040516101389190610d8a565b60405180910390f35b6064600660009054906101000a900473ffffffffffffffffffffffffffffffffffffffff1673ffffffffffffffffffffffffffffffffffffffff166370a08231336040518263ffffffff1660e01b815260040161019e9190610dac565b60206040518083038186803b1580156101b657600080fd5b505afa1580156101ca573d6000803e3d6000fd5b505050506040513d601f19601f820116820180604052508101906101ee9190610ddc565b101561022f576040517f08c379a000000000000000000000000000000000000000000000000000000000815260040161022690610e7b565b60405180910390fd5b600660009054906101000a900473ffffffffffffffffffffffffffffffffffffffff1673ffffffffffffffffffffffffffffffffffffffff166323b872dd333060646040518463ffffffff1660e01b815260040161028f93929190610ed6565b602060405180830381600087803b1580156102a957600080fd5b505af11580156102bd573d6000803e3d6000fd5b505050506040513d601f19601f820116820180604052508101906102e19190610f45565b50600182141561031e57600080016000828152602001908152602001600020600601600081548092919061031490610fa1565b9190505550610357565b600282141561035657600080016000828152602001908152602001600020600701600081548092919061035090610fa1565b91905055505b5b5050565b600660009054906101000a900473ffffffffffffffffffffffffffffffffffffffff1681565b600060606000806000806000806103988a8a61080d565b905060008060000160008c8152602001908152602001600020905060008160010160009054906101000a900473ffffffffffffffffffffffffffffffffffffffff16905060008260020180546103ed90611019565b80601f016020809104026020016040519081016040528092919081815260200182805461041990611019565b80156104665780601f1061043b57610100808354040283529160200191610466565b820191906000526020600020905b81548152906001019060200180831161044957829003601f168201915b50505050509050600083600301549050600084600401549050600085600601549050600086600701549050858585858b86869e509e509e509e509e509e509e50505050505050505092959891949750929550565b6103e8600660009054906101000a900473ffffffffffffffffffffffffffffffffffffffff1673ffffffffffffffffffffffffffffffffffffffff166370a08231336040518263ffffffff1660e01b81526004016105189190610dac565b60206040518083038186803b15801561053057600080fd5b505afa158015610544573d6000803e3d6000fd5b505050506040513d601f19601f820116820180604052508101906105689190610ddc565b10156105a9576040517f08c379a00000000000000000000000000000000000000000000000000000000081526004016105a0906110bd565b60405180910390fd5b600660009054906101000a900473ffffffffffffffffffffffffffffffffffffffff1673ffffffffffffffffffffffffffffffffffffffff166323b872dd33306103e86040518463ffffffff1660e01b815260040161060a93929190611118565b602060405180830381600087803b15801561062457600080fd5b505af1158015610638573d6000803e3d6000fd5b505050506040513d601f19601f8201168201806040525081019061065c9190610f45565b50600061066c60006002016108df565b905060006040518061010001604052808381526020013373ffffffffffffffffffffffffffffffffffffffff16815260200185858080601f016020809104026020016040519081016040528093929190818152602001838380828437600081840152601f19601f8201169050808301925050505050505081526020014281526020016078426106fb919061114f565b8152602001600081526020016000815260200160008152509050806000800160008481526020019081526020016000206000820151816000015560208201518160010160006101000a81548173ffffffffffffffffffffffffffffffffffffffff021916908373ffffffffffffffffffffffffffffffffffffffff1602179055506040820151816002019080519060200190610798929190610903565b50606082015181600301556080820151816004015560a0820151816005015560c0820151816006015560e08201518160070155905050600060010182908060018154018082558091505060019003906000526020600020016000909190919091505561080760006002016108ed565b50505050565b6000806000016000848152602001908152602001600020600401548211156108795760008001600084815260200190815260200160002060070154600080016000858152602001908152602001600020600601541115610870576001905061087e565b6002905061087e565b600090505b92915050565b606060006001018054806020026020016040519081016040528092919081815260200182805480156108d557602002820191906000526020600020905b8154815260200190600101908083116108c1575b5050505050905090565b600081600001549050919050565b6001816000016000828254019250508190555050565b82805461090f90611019565b90600052602060002090601f0160209004810192826109315760008555610978565b82601f1061094a57805160ff1916838001178555610978565b82800160010185558215610978579182015b8281111561097757825182559160200191906001019061095c565b5b5090506109859190610989565b5090565b5b808211156109a257600081600090555060010161098a565b5090565b600080fd5b600080fd5b6000819050919050565b6109c3816109b0565b81146109ce57600080fd5b50565b6000813590506109e0816109ba565b92915050565b600080604083850312156109fd576109fc6109a6565b5b6000610a0b858286016109d1565b9250506020610a1c858286016109d1565b9150509250929050565b600073ffffffffffffffffffffffffffffffffffffffff82169050919050565b6000819050919050565b6000610a6b610a66610a6184610a26565b610a46565b610a26565b9050919050565b6000610a7d82610a50565b9050919050565b6000610a8f82610a72565b9050919050565b610a9f81610a84565b82525050565b6000602082019050610aba6000830184610a96565b92915050565b6000610acb82610a26565b9050919050565b610adb81610ac0565b82525050565b600081519050919050565b600082825260208201905092915050565b60005b83811015610b1b578082015181840152602081019050610b00565b83811115610b2a576000848401525b50505050565b6000601f19601f8301169050919050565b6000610b4c82610ae1565b610b568185610aec565b9350610b66818560208601610afd565b610b6f81610b30565b840191505092915050565b610b83816109b0565b82525050565b600060e082019050610b9e600083018a610ad2565b8181036020830152610bb08189610b41565b9050610bbf6040830188610b7a565b610bcc6060830187610b7a565b610bd96080830186610b7a565b610be660a0830185610b7a565b610bf360c0830184610b7a565b98975050505050505050565b600080fd5b600080fd5b600080fd5b60008083601f840112610c2457610c23610bff565b5b8235905067ffffffffffffffff811115610c4157610c40610c04565b5b602083019150836001820283011115610c5d57610c5c610c09565b5b9250929050565b60008060208385031215610c7b57610c7a6109a6565b5b600083013567ffffffffffffffff811115610c9957610c986109ab565b5b610ca585828601610c0e565b92509250509250929050565b6000602082019050610cc66000830184610b7a565b92915050565b600081519050919050565b600082825260208201905092915050565b6000819050602082019050919050565b610d01816109b0565b82525050565b6000610d138383610cf8565b60208301905092915050565b6000602082019050919050565b6000610d3782610ccc565b610d418185610cd7565b9350610d4c83610ce8565b8060005b83811015610d7d578151610d648882610d07565b9750610d6f83610d1f565b925050600181019050610d50565b5085935050505092915050565b60006020820190508181036000830152610da48184610d2c565b905092915050565b6000602082019050610dc16000830184610ad2565b92915050565b600081519050610dd6816109ba565b92915050565b600060208284031215610df257610df16109a6565b5b6000610e0084828501610dc7565b91505092915050565b7f596f7520646f6e2774206861766520656e6f75676820746f6b656e20746f207660008201527f6f74650000000000000000000000000000000000000000000000000000000000602082015250565b6000610e65602383610aec565b9150610e7082610e09565b604082019050919050565b60006020820190508181036000830152610e9481610e58565b9050919050565b6000819050919050565b6000610ec0610ebb610eb684610e9b565b610a46565b6109b0565b9050919050565b610ed081610ea5565b82525050565b6000606082019050610eeb6000830186610ad2565b610ef86020830185610ad2565b610f056040830184610ec7565b949350505050565b60008115159050919050565b610f2281610f0d565b8114610f2d57600080fd5b50565b600081519050610f3f81610f19565b92915050565b600060208284031215610f5b57610f5a6109a6565b5b6000610f6984828501610f30565b91505092915050565b7f4e487b7100000000000000000000000000000000000000000000000000000000600052601160045260246000fd5b6000610fac826109b0565b91507fffffffffffffffffffffffffffffffffffffffffffffffffffffffffffffffff821415610fdf57610fde610f72565b5b600182019050919050565b7f4e487b7100000000000000000000000000000000000000000000000000000000600052602260045260246000fd5b6000600282049050600182168061103157607f821691505b6020821081141561104557611044610fea565b5b50919050565b7f596f7520646f6e2774206861766520656e6f75676820746f6b656e20746f206960008201527f6e69746961746520612070726f706f73616c0000000000000000000000000000602082015250565b60006110a7603283610aec565b91506110b28261104b565b604082019050919050565b600060208201905081810360008301526110d68161109a565b9050919050565b6000819050919050565b60006111026110fd6110f8846110dd565b610a46565b6109b0565b9050919050565b611112816110e7565b82525050565b600060608201905061112d6000830186610ad2565b61113a6020830185610ad2565b6111476040830184611109565b949350505050565b600061115a826109b0565b9150611165836109b0565b9250827fffffffffffffffffffffffffffffffffffffffffffffffffffffffffffffffff0382111561119a57611199610f72565b5b82820190509291505056fea26469706673582212207c5ae692f6f2dca0ba69571f59e7cb9623037e2e977182a7ef2afa3d36f0dcb864736f6c6343000809003360806040523480156200001157600080fd5b5060405162001990380380620019908339818101604052810190620000379190620002c2565b818181600390805190602001906200005192919062000075565b5080600490805190602001906200006a92919062000075565b5050505050620003ac565b828054620000839062000376565b90600052602060002090601f016020900481019282620000a75760008555620000f3565b82601f10620000c257805160ff1916838001178555620000f3565b82800160010185558215620000f3579182015b82811115620000f2578251825591602001919060010190620000d5565b5b50905062000102919062000106565b5090565b5b808211156200012157600081600090555060010162000107565b5090565b6000604051905090565b600080fd5b600080fd5b600080fd5b600080fd5b6000601f19601f8301169050919050565b7f4e487b7100000000000000000000000000000000000000000000000000000000600052604160045260246000fd5b6200018e8262000143565b810181811067ffffffffffffffff82111715620001b057620001af62000154565b5b80604052505050565b6000620001c562000125565b9050620001d3828262000183565b919050565b600067ffffffffffffffff821115620001f657620001f562000154565b5b620002018262000143565b9050602081019050919050565b60005b838110156200022e57808201518184015260208101905062000211565b838111156200023e576000848401525b50505050565b60006200025b6200025584620001d8565b620001b9565b9050828152602081018484840111156200027a57620002796200013e565b5b620002878482856200020e565b509392505050565b600082601f830112620002a757620002a662000139565b5b8151620002b984826020860162000244565b91505092915050565b60008060408385031215620002dc57620002db6200012f565b5b600083015167ffffffffffffffff811115620002fd57620002fc62000134565b5b6200030b858286016200028f565b925050602083015167ffffffffffffffff8111156200032f576200032e62000134565b5b6200033d858286016200028f565b9150509250929050565b7f4e487b7100000000000000000000000000000000000000000000000000000000600052602260045260246000fd5b600060028204905060018216806200038f57607f821691505b60208210811415620003a657620003a562000347565b5b50919050565b6115d480620003bc6000396000f3fe608060405234801561001057600080fd5b50600436106100b45760003560e01c806370a082311161007157806370a08231146101a35780638589cbdf146101d357806395d89b41146101dd578063a457c2d7146101fb578063a9059cbb1461022b578063dd62ed3e1461025b576100b4565b806306fdde03146100b9578063095ea7b3146100d757806318160ddd1461010757806323b872dd14610125578063313ce567146101555780633950935114610173575b600080fd5b6100c161028b565b6040516100ce9190610d90565b60405180910390f35b6100f160048036038101906100ec9190610e4b565b61031d565b6040516100fe9190610ea6565b60405180910390f35b61010f610340565b60405161011c9190610ed0565b60405180910390f35b61013f600480360381019061013a9190610eeb565b61034a565b60405161014c9190610ea6565b60405180910390f35b61015d610379565b60405161016a9190610f5a565b60405180910390f35b61018d60048036038101906101889190610e4b565b610382565b60405161019a9190610ea6565b60405180910390f35b6101bd60048036038101906101b89190610f75565b6103b9565b6040516101ca9190610ed0565b60405180910390f35b6101db610401565b005b6101e56104fa565b6040516101f29190610d90565b60405180910390f35b61021560048036038101906102109190610e4b565b61058c565b6040516102229190610ea6565b60405180910390f35b61024560048036038101906102409190610e4b565b610603565b6040516102529190610ea6565b60405180910390f35b61027560048036038101906102709190610fa2565b610626565b6040516102829190610ed0565b60405180910390f35b60606003805461029a90611011565b80601f01602080910402602001604051908101604052809291908181526020018280546102c690611011565b80156103135780601f106102e857610100808354040283529160200191610313565b820191906000526020600020905b8154815290600101906020018083116102f657829003601f168201915b5050505050905090565b6000806103286106ad565b90506103358185856106b5565b600191505092915050565b6000600254905090565b6000806103556106ad565b9050610362858285610880565b61036d85858561090c565b60019150509392505050565b60006012905090565b60008061038d6106ad565b90506103ae81858561039f8589610626565b6103a99190611072565b6106b5565b600191505092915050565b60008060008373ffffffffffffffffffffffffffffffffffffffff1673ffffffffffffffffffffffffffffffffffffffff168152602001908152602001600020549050919050565b60001515600560003373ffffffffffffffffffffffffffffffffffffffff1673ffffffffffffffffffffffffffffffffffffffff16815260200190815260200160002060009054906101000a900460ff16151514610494576040517f08c379a000000000000000000000000000000000000000000000000000000000815260040161048b9061113a565b60405180910390fd5b6104a033612710610b8d565b6001600560003373ffffffffffffffffffffffffffffffffffffffff1673ffffffffffffffffffffffffffffffffffffffff16815260200190815260200160002060006101000a81548160ff021916908315150217905550565b60606004805461050990611011565b80601f016020809104026020016040519081016040528092919081815260200182805461053590611011565b80156105825780601f1061055757610100808354040283529160200191610582565b820191906000526020600020905b81548152906001019060200180831161056557829003601f168201915b5050505050905090565b6000806105976106ad565b905060006105a58286610626565b9050838110156105ea576040517f08c379a00000000000000000000000000000000000000000000000000000000081526004016105e1906111cc565b60405180910390fd5b6105f782868684036106b5565b60019250505092915050565b60008061060e6106ad565b905061061b81858561090c565b600191505092915050565b6000600160008473ffffffffffffffffffffffffffffffffffffffff1673ffffffffffffffffffffffffffffffffffffffff16815260200190815260200160002060008373ffffffffffffffffffffffffffffffffffffffff1673ffffffffffffffffffffffffffffffffffffffff16815260200190815260200160002054905092915050565b600033905090565b600073ffffffffffffffffffffffffffffffffffffffff168373ffffffffffffffffffffffffffffffffffffffff161415610725576040517f08c379a000000000000000000000000000000000000000000000000000000000815260040161071c9061125e565b60405180910390fd5b600073ffffffffffffffffffffffffffffffffffffffff168273ffffffffffffffffffffffffffffffffffffffff161415610795576040517f08c379a000000000000000000000000000000000000000000000000000000000815260040161078c906112f0565b60405180910390fd5b80600160008573ffffffffffffffffffffffffffffffffffffffff1673ffffffffffffffffffffffffffffffffffffffff16815260200190815260200160002060008473ffffffffffffffffffffffffffffffffffffffff1673ffffffffffffffffffffffffffffffffffffffff168152602001908152602001600020819055508173ffffffffffffffffffffffffffffffffffffffff168373ffffffffffffffffffffffffffffffffffffffff167f8c5be1e5ebec7d5bd14f71427d1e84f3dd0314c0f7b2291e5b200ac8c7c3b925836040516108739190610ed0565b60405180910390a3505050565b600061088c8484610626565b90507fffffffffffffffffffffffffffffffffffffffffffffffffffffffffffffffff811461090657818110156108f8576040517f08c379a00000000000000000000000000000000000000000000000000000000081526004016108ef9061135c565b60405180910390fd5b61090584848484036106b5565b5b50505050565b600073ffffffffffffffffffffffffffffffffffffffff168373ffffffffffffffffffffffffffffffffffffffff16141561097c576040517f08c379a0000000000000000000000000000000000000000000000000000000008152600401610973906113ee565b60405180910390fd5b600073ffffffffffffffffffffffffffffffffffffffff168273ffffffffffffffffffffffffffffffffffffffff1614156109ec576040517f08c379a00000000000000000000000000000000000000000000000000000000081526004016109e390611480565b60405180910390fd5b6109f7838383610ced565b60008060008573ffffffffffffffffffffffffffffffffffffffff1673ffffffffffffffffffffffffffffffffffffffff16815260200190815260200160002054905081811015610a7d576040517f08c379a0000000000000000000000000000000000000000000000000000000008152600401610a7490611512565b60405180910390fd5b8181036000808673ffffffffffffffffffffffffffffffffffffffff1673ffffffffffffffffffffffffffffffffffffffff16815260200190815260200160002081905550816000808573ffffffffffffffffffffffffffffffffffffffff1673ffffffffffffffffffffffffffffffffffffffff1681526020019081526020016000206000828254610b109190611072565b925050819055508273ffffffffffffffffffffffffffffffffffffffff168473ffffffffffffffffffffffffffffffffffffffff167fddf252ad1be2c89b69c2b068fc378daa952ba7f163c4a11628f55a4df523b3ef84604051610b749190610ed0565b60405180910390a3610b87848484610cf2565b50505050565b600073ffffffffffffffffffffffffffffffffffffffff168273ffffffffffffffffffffffffffffffffffffffff161415610bfd576040517f08c379a0000000000000000000000000000000000000000000000000000000008152600401610bf49061157e565b60405180910390fd5b610c0960008383610ced565b8060026000828254610c1b9190611072565b92505081905550806000808473ffffffffffffffffffffffffffffffffffffffff1673ffffffffffffffffffffffffffffffffffffffff1681526020019081526020016000206000828254610c709190611072565b925050819055508173ffffffffffffffffffffffffffffffffffffffff16600073ffffffffffffffffffffffffffffffffffffffff167fddf252ad1be2c89b69c2b068fc378daa952ba7f163c4a11628f55a4df523b3ef83604051610cd59190610ed0565b60405180910390a3610ce960008383610cf2565b5050565b505050565b505050565b600081519050919050565b600082825260208201905092915050565b60005b83811015610d31578082015181840152602081019050610d16565b83811115610d40576000848401525b50505050565b6000601f19601f8301169050919050565b6000610d6282610cf7565b610d6c8185610d02565b9350610d7c818560208601610d13565b610d8581610d46565b840191505092915050565b60006020820190508181036000830152610daa8184610d57565b905092915050565b600080fd5b600073ffffffffffffffffffffffffffffffffffffffff82169050919050565b6000610de282610db7565b9050919050565b610df281610dd7565b8114610dfd57600080fd5b50565b600081359050610e0f81610de9565b92915050565b6000819050919050565b610e2881610e15565b8114610e3357600080fd5b50565b600081359050610e4581610e1f565b92915050565b60008060408385031215610e6257610e61610db2565b5b6000610e7085828601610e00565b9250506020610e8185828601610e36565b9150509250929050565b60008115159050919050565b610ea081610e8b565b82525050565b6000602082019050610ebb6000830184610e97565b92915050565b610eca81610e15565b82525050565b6000602082019050610ee56000830184610ec1565b92915050565b600080600060608486031215610f0457610f03610db2565b5b6000610f1286828701610e00565b9350506020610f2386828701610e00565b9250506040610f3486828701610e36565b9150509250925092565b600060ff82169050919050565b610f5481610f3e565b82525050565b6000602082019050610f6f6000830184610f4b565b92915050565b600060208284031215610f8b57610f8a610db2565b5b6000610f9984828501610e00565b91505092915050565b60008060408385031215610fb957610fb8610db2565b5b6000610fc785828601610e00565b9250506020610fd885828601610e00565b9150509250929050565b7f4e487b7100000000000000000000000000000000000000000000000000000000600052602260045260246000fd5b6000600282049050600182168061102957607f821691505b6020821081141561103d5761103c610fe2565b5b50919050565b7f4e487b7100000000000000000000000000000000000000000000000000000000600052601160045260246000fd5b600061107d82610e15565b915061108883610e15565b9250827fffffffffffffffffffffffffffffffffffffffffffffffffffffffffffffffff038211156110bd576110bc611043565b5b828201905092915050565b7f596f75206861766520616c72656164792072656365697665642074686520746f60008201527f6b656e0000000000000000000000000000000000000000000000000000000000602082015250565b6000611124602383610d02565b915061112f826110c8565b604082019050919050565b6000602082019050818103600083015261115381611117565b9050919050565b7f45524332303a2064656372656173656420616c6c6f77616e63652062656c6f7760008201527f207a65726f000000000000000000000000000000000000000000000000000000602082015250565b60006111b6602583610d02565b91506111c18261115a565b604082019050919050565b600060208201905081810360008301526111e5816111a9565b9050919050565b7f45524332303a20617070726f76652066726f6d20746865207a65726f2061646460008201527f7265737300000000000000000000000000000000000000000000000000000000602082015250565b6000611248602483610d02565b9150611253826111ec565b604082019050919050565b600060208201905081810360008301526112778161123b565b9050919050565b7f45524332303a20617070726f766520746f20746865207a65726f20616464726560008201527f7373000000000000000000000000000000000000000000000000000000000000602082015250565b60006112da602283610d02565b91506112e58261127e565b604082019050919050565b60006020820190508181036000830152611309816112cd565b9050919050565b7f45524332303a20696e73756666696369656e7420616c6c6f77616e6365000000600082015250565b6000611346601d83610d02565b915061135182611310565b602082019050919050565b6000602082019050818103600083015261137581611339565b9050919050565b7f45524332303a207472616e736665722066726f6d20746865207a65726f20616460008201527f6472657373000000000000000000000000000000000000000000000000000000602082015250565b60006113d8602583610d02565b91506113e38261137c565b604082019050919050565b60006020820190508181036000830152611407816113cb565b9050919050565b7f45524332303a207472616e7366657220746f20746865207a65726f206164647260008201527f6573730000000000000000000000000000000000000000000000000000000000602082015250565b600061146a602383610d02565b91506114758261140e565b604082019050919050565b600060208201905081810360008301526114998161145d565b9050919050565b7f45524332303a207472616e7366657220616d6f756e742065786365656473206260008201527f616c616e63650000000000000000000000000000000000000000000000000000602082015250565b60006114fc602683610d02565b9150611507826114a0565b604082019050919050565b6000602082019050818103600083015261152b816114ef565b9050919050565b7f45524332303a206d696e7420746f20746865207a65726f206164647265737300600082015250565b6000611568601f83610d02565b915061157382611532565b602082019050919050565b600060208201905081810360008301526115978161155b565b905091905056fea2646970667358221220d650cdcf645351407e34589ebddfaa67f1f3844443e81b157673c289c34a838564736f6c63430008090033",
  "linkReferences": {},
  "deployedLinkReferences": {}
}