{
  "_format": "hh-sol-artifact-1",
  "contractName": "StudentSocietyDAO",
  "sourceName": "contracts/StudentSocietyDAO.sol",
  "abi": [
    {
      "inputs": [],
      "stateMutability": "nonpayable",
      "type": "constructor"
    },
    {
      "anonymous": false,
      "inputs": [
        {
          "indexed": false,
          "internalType": "uint32",
          "name": "proposalIndex",
          "type": "uint32"
        }
      ],
      "name": "ProposalInitiated",
      "type": "event"
    },
    {
      "inputs": [],
      "name": "UserNFT",
      "outputs": [
        {
          "internalType": "contract MyERC721",
          "name": "",
          "type": "address"
        }
      ],
      "stateMutability": "view",
      "type": "function"
    },
    {
      "inputs": [],
      "name": "UserToken",
      "outputs": [
        {
          "internalType": "contract MyERC20",
          "name": "",
          "type": "address"
        }
      ],
      "stateMutability": "view",
      "type": "function"
    },
    {
      "inputs": [
        {
          "internalType": "string",
          "name": "ProposalContent",
          "type": "string"
        }
      ],
      "name": "addNewProposal",
      "outputs": [],
      "stateMutability": "nonpayable",
      "type": "function"
    },
    {
      "inputs": [
        {
          "internalType": "uint256",
          "name": "content",
          "type": "uint256"
        },
        {
          "internalType": "uint256",
          "name": "proposalIndex",
          "type": "uint256"
        }
      ],
      "name": "addNewVote",
      "outputs": [],
      "stateMutability": "nonpayable",
      "type": "function"
    },
    {
      "inputs": [],
      "name": "getAllProposalIndex",
      "outputs": [
        {
          "internalType": "uint256[]",
          "name": "",
          "type": "uint256[]"
        }
      ],
      "stateMutability": "view",
      "type": "function"
    },
    {
      "inputs": [
        {
          "internalType": "uint256",
          "name": "index",
          "type": "uint256"
        },
        {
          "internalType": "uint256",
          "name": "nowTime",
          "type": "uint256"
        }
      ],
      "name": "getProposalInformation",
      "outputs": [
        {
          "internalType": "address",
          "name": "",
          "type": "address"
        },
        {
          "internalType": "string",
          "name": "",
          "type": "string"
        },
        {
          "internalType": "uint256",
          "name": "",
          "type": "uint256"
        },
        {
          "internalType": "uint256",
          "name": "",
          "type": "uint256"
        },
        {
          "internalType": "uint256",
          "name": "",
          "type": "uint256"
        },
        {
          "internalType": "uint256[2]",
          "name": "",
          "type": "uint256[2]"
        },
        {
          "internalType": "bool[2]",
          "name": "",
          "type": "bool[2]"
        }
      ],
      "stateMutability": "view",
      "type": "function"
    },
    {
      "inputs": [
        {
          "internalType": "uint256",
          "name": "proposalIndex",
          "type": "uint256"
        }
      ],
      "name": "getProposalReward",
      "outputs": [],
      "stateMutability": "nonpayable",
      "type": "function"
    },
    {
      "inputs": [
        {
          "internalType": "uint256",
          "name": "proposalIndex",
          "type": "uint256"
        },
        {
          "internalType": "uint256",
          "name": "nowTime",
          "type": "uint256"
        }
      ],
      "name": "getProposalStatus",
      "outputs": [
        {
          "internalType": "uint256",
          "name": "",
          "type": "uint256"
        }
      ],
      "stateMutability": "view",
      "type": "function"
    }
  ],
  "bytecode": "0x60806040523480156200001157600080fd5b50604051620000209062000106565b6200002b90620001d3565b604051809103906000f08015801562000048573d6000803e3d6000fd5b50600460006101000a81548173ffffffffffffffffffffffffffffffffffffffff021916908373ffffffffffffffffffffffffffffffffffffffff160217905550604051620000979062000114565b620000a290620002aa565b604051809103906000f080158015620000bf573d6000803e3d6000fd5b50600560006101000a81548173ffffffffffffffffffffffffffffffffffffffff021916908373ffffffffffffffffffffffffffffffffffffffff160217905550620002e1565b611990806200199e83390190565b613122806200332e83390190565b600082825260208201905092915050565b7f55736572546f6b656e0000000000000000000000000000000000000000000000600082015250565b60006200016b60098362000122565b9150620001788262000133565b602082019050919050565b7f5554000000000000000000000000000000000000000000000000000000000000600082015250565b6000620001bb60028362000122565b9150620001c88262000183565b602082019050919050565b60006040820190508181036000830152620001ee816200015c565b905081810360208301526200020381620001ac565b9050919050565b7f557365724e465400000000000000000000000000000000000000000000000000600082015250565b60006200024260078362000122565b91506200024f826200020a565b602082019050919050565b7f554e000000000000000000000000000000000000000000000000000000000000600082015250565b60006200029260028362000122565b91506200029f826200025a565b602082019050919050565b60006040820190508181036000830152620002c58162000233565b90508181036020830152620002da8162000283565b9050919050565b6116ad80620002f16000396000f3fe608060405234801561001057600080fd5b50600436106100885760003560e01c8063c6d05fd41161005b578063c6d05fd414610119578063ddb59ddd14610135578063e06f379a14610153578063e15baf771461018357610088565b8063065e1e3e1461008d5780630aaf333e146100a95780632137671b146100c7578063b8e938a3146100fd575b600080fd5b6100a760048036038101906100a29190610c9c565b6101a1565b005b6100b16103bb565b6040516100be9190610d5b565b60405180910390f35b6100e160048036038101906100dc9190610c9c565b6103e1565b6040516100f49796959493929190610fa1565b60405180910390f35b61011760048036038101906101129190611018565b61057a565b005b610133600480360381019061012e91906110aa565b6106b2565b005b61013d610a59565b60405161014a9190611118565b60405180910390f35b61016d60048036038101906101689190610c9c565b610a7f565b60405161017a9190611133565b60405180910390f35b61018b610af6565b60405161019891906111e5565b60405180910390f35b6064600460009054906101000a900473ffffffffffffffffffffffffffffffffffffffff1673ffffffffffffffffffffffffffffffffffffffff166370a08231336040518263ffffffff1660e01b81526004016101fe9190611207565b60206040518083038186803b15801561021657600080fd5b505afa15801561022a573d6000803e3d6000fd5b505050506040513d601f19601f8201168201806040525081019061024e9190611237565b101561028f576040517f08c379a0000000000000000000000000000000000000000000000000000000008152600401610286906112d6565b60405180910390fd5b600460009054906101000a900473ffffffffffffffffffffffffffffffffffffffff1673ffffffffffffffffffffffffffffffffffffffff166323b872dd333060646040518463ffffffff1660e01b81526004016102ef93929190611331565b602060405180830381600087803b15801561030957600080fd5b505af115801561031d573d6000803e3d6000fd5b505050506040513d601f19601f820116820180604052508101906103419190611394565b50600182141561037e576000800160008281526020019081526020016000206006016000815480929190610374906113f0565b91905055506103b7565b60028214156103b65760008001600082815260200190815260200160002060070160008154809291906103b0906113f0565b91905055505b5b5050565b600460009054906101000a900473ffffffffffffffffffffffffffffffffffffffff1681565b6000606060008060006103f2610b75565b6103fa610b97565b60006104068a8a610a7f565b905060008060000160008c8152602001908152602001600020905060008160010160009054906101000a900473ffffffffffffffffffffffffffffffffffffffff169050600082600201805461045b90611468565b80601f016020809104026020016040519081016040528092919081815260200182805461048790611468565b80156104d45780601f106104a9576101008083540402835291602001916104d4565b820191906000526020600020905b8154815290600101906020018083116104b757829003601f168201915b50505050509050600083600301549050600084600401549050600060405180604001604052808760060154815260200187600701548152509050600060405180604001604052808860080160009054906101000a900460ff161515151581526020018860080160019054906101000a900460ff16151515158152509050858585858b86869e509e509e509e509e509e509e50505050505050505092959891949750929550565b600160008001600083815260200190815260200160002060080160006101000a81548160ff021916908315150217905550600460009054906101000a900473ffffffffffffffffffffffffffffffffffffffff1673ffffffffffffffffffffffffffffffffffffffff1663a9059cbb336103e86064600080016000878152602001908152602001600020600601546000800160008881526020019081526020016000206007015461062b919061149a565b61063591906114f0565b61063f919061149a565b6040518363ffffffff1660e01b815260040161065c92919061154a565b602060405180830381600087803b15801561067657600080fd5b505af115801561068a573d6000803e3d6000fd5b505050506040513d601f19601f820116820180604052508101906106ae9190611394565b5050565b6103e8600460009054906101000a900473ffffffffffffffffffffffffffffffffffffffff1673ffffffffffffffffffffffffffffffffffffffff166370a08231336040518263ffffffff1660e01b81526004016107109190611207565b60206040518083038186803b15801561072857600080fd5b505afa15801561073c573d6000803e3d6000fd5b505050506040513d601f19601f820116820180604052508101906107609190611237565b10156107a1576040517f08c379a0000000000000000000000000000000000000000000000000000000008152600401610798906115e5565b60405180910390fd5b600460009054906101000a900473ffffffffffffffffffffffffffffffffffffffff1673ffffffffffffffffffffffffffffffffffffffff166323b872dd33306103e86040518463ffffffff1660e01b815260040161080293929190611640565b602060405180830381600087803b15801561081c57600080fd5b505af1158015610830573d6000803e3d6000fd5b505050506040513d601f19601f820116820180604052508101906108549190611394565b5060006108646000600201610b51565b905060006040518061014001604052808381526020013373ffffffffffffffffffffffffffffffffffffffff16815260200185858080601f016020809104026020016040519081016040528093929190818152602001838380828437600081840152601f19601f8201169050808301925050505050505081526020014281526020016078426108f3919061149a565b8152602001600081526020016000815260200160008152602001600015158152602001600015158152509050806000800160008481526020019081526020016000206000820151816000015560208201518160010160006101000a81548173ffffffffffffffffffffffffffffffffffffffff021916908373ffffffffffffffffffffffffffffffffffffffff16021790555060408201518160020190805190602001906109a2929190610bb9565b50606082015181600301556080820151816004015560a0820151816005015560c0820151816006015560e082015181600701556101008201518160080160006101000a81548160ff0219169083151502179055506101208201518160080160016101000a81548160ff0219169083151502179055509050506000600101829080600181540180825580915050600190039060005260206000200160009091909190915055610a536000600201610b5f565b50505050565b600560009054906101000a900473ffffffffffffffffffffffffffffffffffffffff1681565b600080600001600084815260200190815260200160002060040154821115610aeb5760008001600084815260200190815260200160002060070154600080016000858152602001908152602001600020600601541115610ae25760019050610af0565b60029050610af0565b600090505b92915050565b60606000600101805480602002602001604051908101604052809291908181526020018280548015610b4757602002820191906000526020600020905b815481526020019060010190808311610b33575b5050505050905090565b600081600001549050919050565b6001816000016000828254019250508190555050565b6040518060400160405280600290602082028036833780820191505090505090565b6040518060400160405280600290602082028036833780820191505090505090565b828054610bc590611468565b90600052602060002090601f016020900481019282610be75760008555610c2e565b82601f10610c0057805160ff1916838001178555610c2e565b82800160010185558215610c2e579182015b82811115610c2d578251825591602001919060010190610c12565b5b509050610c3b9190610c3f565b5090565b5b80821115610c58576000816000905550600101610c40565b5090565b600080fd5b600080fd5b6000819050919050565b610c7981610c66565b8114610c8457600080fd5b50565b600081359050610c9681610c70565b92915050565b60008060408385031215610cb357610cb2610c5c565b5b6000610cc185828601610c87565b9250506020610cd285828601610c87565b9150509250929050565b600073ffffffffffffffffffffffffffffffffffffffff82169050919050565b6000819050919050565b6000610d21610d1c610d1784610cdc565b610cfc565b610cdc565b9050919050565b6000610d3382610d06565b9050919050565b6000610d4582610d28565b9050919050565b610d5581610d3a565b82525050565b6000602082019050610d706000830184610d4c565b92915050565b6000610d8182610cdc565b9050919050565b610d9181610d76565b82525050565b600081519050919050565b600082825260208201905092915050565b60005b83811015610dd1578082015181840152602081019050610db6565b83811115610de0576000848401525b50505050565b6000601f19601f8301169050919050565b6000610e0282610d97565b610e0c8185610da2565b9350610e1c818560208601610db3565b610e2581610de6565b840191505092915050565b610e3981610c66565b82525050565b600060029050919050565b600081905092915050565b6000819050919050565b610e6881610c66565b82525050565b6000610e7a8383610e5f565b60208301905092915050565b6000602082019050919050565b610e9c81610e3f565b610ea68184610e4a565b9250610eb182610e55565b8060005b83811015610ee2578151610ec98782610e6e565b9650610ed483610e86565b925050600181019050610eb5565b505050505050565b600060029050919050565b600081905092915050565b6000819050919050565b60008115159050919050565b610f1f81610f0a565b82525050565b6000610f318383610f16565b60208301905092915050565b6000602082019050919050565b610f5381610eea565b610f5d8184610ef5565b9250610f6882610f00565b8060005b83811015610f99578151610f808782610f25565b9650610f8b83610f3d565b925050600181019050610f6c565b505050505050565b600061012082019050610fb7600083018a610d88565b8181036020830152610fc98189610df7565b9050610fd86040830188610e30565b610fe56060830187610e30565b610ff26080830186610e30565b610fff60a0830185610e93565b61100c60e0830184610f4a565b98975050505050505050565b60006020828403121561102e5761102d610c5c565b5b600061103c84828501610c87565b91505092915050565b600080fd5b600080fd5b600080fd5b60008083601f84011261106a57611069611045565b5b8235905067ffffffffffffffff8111156110875761108661104a565b5b6020830191508360018202830111156110a3576110a261104f565b5b9250929050565b600080602083850312156110c1576110c0610c5c565b5b600083013567ffffffffffffffff8111156110df576110de610c61565b5b6110eb85828601611054565b92509250509250929050565b600061110282610d28565b9050919050565b611112816110f7565b82525050565b600060208201905061112d6000830184611109565b92915050565b60006020820190506111486000830184610e30565b92915050565b600081519050919050565b600082825260208201905092915050565b6000819050602082019050919050565b6000602082019050919050565b60006111928261114e565b61119c8185611159565b93506111a78361116a565b8060005b838110156111d85781516111bf8882610e6e565b97506111ca8361117a565b9250506001810190506111ab565b5085935050505092915050565b600060208201905081810360008301526111ff8184611187565b905092915050565b600060208201905061121c6000830184610d88565b92915050565b60008151905061123181610c70565b92915050565b60006020828403121561124d5761124c610c5c565b5b600061125b84828501611222565b91505092915050565b7f596f7520646f6e2774206861766520656e6f75676820746f6b656e20746f207660008201527f6f74650000000000000000000000000000000000000000000000000000000000602082015250565b60006112c0602383610da2565b91506112cb82611264565b604082019050919050565b600060208201905081810360008301526112ef816112b3565b9050919050565b6000819050919050565b600061131b611316611311846112f6565b610cfc565b610c66565b9050919050565b61132b81611300565b82525050565b60006060820190506113466000830186610d88565b6113536020830185610d88565b6113606040830184611322565b949350505050565b61137181610f0a565b811461137c57600080fd5b50565b60008151905061138e81611368565b92915050565b6000602082840312156113aa576113a9610c5c565b5b60006113b88482850161137f565b91505092915050565b7f4e487b7100000000000000000000000000000000000000000000000000000000600052601160045260246000fd5b60006113fb82610c66565b91507fffffffffffffffffffffffffffffffffffffffffffffffffffffffffffffffff82141561142e5761142d6113c1565b5b600182019050919050565b7f4e487b7100000000000000000000000000000000000000000000000000000000600052602260045260246000fd5b6000600282049050600182168061148057607f821691505b6020821081141561149457611493611439565b5b50919050565b60006114a582610c66565b91506114b083610c66565b9250827fffffffffffffffffffffffffffffffffffffffffffffffffffffffffffffffff038211156114e5576114e46113c1565b5b828201905092915050565b60006114fb82610c66565b915061150683610c66565b9250817fffffffffffffffffffffffffffffffffffffffffffffffffffffffffffffffff048311821515161561153f5761153e6113c1565b5b828202905092915050565b600060408201905061155f6000830185610d88565b61156c6020830184610e30565b9392505050565b7f596f7520646f6e2774206861766520656e6f75676820746f6b656e20746f206960008201527f6e69746961746520612070726f706f73616c0000000000000000000000000000602082015250565b60006115cf603283610da2565b91506115da82611573565b604082019050919050565b600060208201905081810360008301526115fe816115c2565b9050919050565b6000819050919050565b600061162a61162561162084611605565b610cfc565b610c66565b9050919050565b61163a8161160f565b82525050565b60006060820190506116556000830186610d88565b6116626020830185610d88565b61166f6040830184611631565b94935050505056fea264697066735822122021ed749ab99a54d60f4928ea7ae82c15934d177252ee5c178f3743d92bc6d43664736f6c6343000809003360806040523480156200001157600080fd5b5060405162001990380380620019908339818101604052810190620000379190620002c2565b818181600390805190602001906200005192919062000075565b5080600490805190602001906200006a92919062000075565b5050505050620003ac565b828054620000839062000376565b90600052602060002090601f016020900481019282620000a75760008555620000f3565b82601f10620000c257805160ff1916838001178555620000f3565b82800160010185558215620000f3579182015b82811115620000f2578251825591602001919060010190620000d5565b5b50905062000102919062000106565b5090565b5b808211156200012157600081600090555060010162000107565b5090565b6000604051905090565b600080fd5b600080fd5b600080fd5b600080fd5b6000601f19601f8301169050919050565b7f4e487b7100000000000000000000000000000000000000000000000000000000600052604160045260246000fd5b6200018e8262000143565b810181811067ffffffffffffffff82111715620001b057620001af62000154565b5b80604052505050565b6000620001c562000125565b9050620001d3828262000183565b919050565b600067ffffffffffffffff821115620001f657620001f562000154565b5b620002018262000143565b9050602081019050919050565b60005b838110156200022e57808201518184015260208101905062000211565b838111156200023e576000848401525b50505050565b60006200025b6200025584620001d8565b620001b9565b9050828152602081018484840111156200027a57620002796200013e565b5b620002878482856200020e565b509392505050565b600082601f830112620002a757620002a662000139565b5b8151620002b984826020860162000244565b91505092915050565b60008060408385031215620002dc57620002db6200012f565b5b600083015167ffffffffffffffff811115620002fd57620002fc62000134565b5b6200030b858286016200028f565b925050602083015167ffffffffffffffff8111156200032f576200032e62000134565b5b6200033d858286016200028f565b9150509250929050565b7f4e487b7100000000000000000000000000000000000000000000000000000000600052602260045260246000fd5b600060028204905060018216806200038f57607f821691505b60208210811415620003a657620003a562000347565b5b50919050565b6115d480620003bc6000396000f3fe608060405234801561001057600080fd5b50600436106100b45760003560e01c806370a082311161007157806370a08231146101a35780638589cbdf146101d357806395d89b41146101dd578063a457c2d7146101fb578063a9059cbb1461022b578063dd62ed3e1461025b576100b4565b806306fdde03146100b9578063095ea7b3146100d757806318160ddd1461010757806323b872dd14610125578063313ce567146101555780633950935114610173575b600080fd5b6100c161028b565b6040516100ce9190610d90565b60405180910390f35b6100f160048036038101906100ec9190610e4b565b61031d565b6040516100fe9190610ea6565b60405180910390f35b61010f610340565b60405161011c9190610ed0565b60405180910390f35b61013f600480360381019061013a9190610eeb565b61034a565b60405161014c9190610ea6565b60405180910390f35b61015d610379565b60405161016a9190610f5a565b60405180910390f35b61018d60048036038101906101889190610e4b565b610382565b60405161019a9190610ea6565b60405180910390f35b6101bd60048036038101906101b89190610f75565b6103b9565b6040516101ca9190610ed0565b60405180910390f35b6101db610401565b005b6101e56104fa565b6040516101f29190610d90565b60405180910390f35b61021560048036038101906102109190610e4b565b61058c565b6040516102229190610ea6565b60405180910390f35b61024560048036038101906102409190610e4b565b610603565b6040516102529190610ea6565b60405180910390f35b61027560048036038101906102709190610fa2565b610626565b6040516102829190610ed0565b60405180910390f35b60606003805461029a90611011565b80601f01602080910402602001604051908101604052809291908181526020018280546102c690611011565b80156103135780601f106102e857610100808354040283529160200191610313565b820191906000526020600020905b8154815290600101906020018083116102f657829003601f168201915b5050505050905090565b6000806103286106ad565b90506103358185856106b5565b600191505092915050565b6000600254905090565b6000806103556106ad565b9050610362858285610880565b61036d85858561090c565b60019150509392505050565b60006012905090565b60008061038d6106ad565b90506103ae81858561039f8589610626565b6103a99190611072565b6106b5565b600191505092915050565b60008060008373ffffffffffffffffffffffffffffffffffffffff1673ffffffffffffffffffffffffffffffffffffffff168152602001908152602001600020549050919050565b60001515600560003373ffffffffffffffffffffffffffffffffffffffff1673ffffffffffffffffffffffffffffffffffffffff16815260200190815260200160002060009054906101000a900460ff16151514610494576040517f08c379a000000000000000000000000000000000000000000000000000000000815260040161048b9061113a565b60405180910390fd5b6104a033612710610b8d565b6001600560003373ffffffffffffffffffffffffffffffffffffffff1673ffffffffffffffffffffffffffffffffffffffff16815260200190815260200160002060006101000a81548160ff021916908315150217905550565b60606004805461050990611011565b80601f016020809104026020016040519081016040528092919081815260200182805461053590611011565b80156105825780601f1061055757610100808354040283529160200191610582565b820191906000526020600020905b81548152906001019060200180831161056557829003601f168201915b5050505050905090565b6000806105976106ad565b905060006105a58286610626565b9050838110156105ea576040517f08c379a00000000000000000000000000000000000000000000000000000000081526004016105e1906111cc565b60405180910390fd5b6105f782868684036106b5565b60019250505092915050565b60008061060e6106ad565b905061061b81858561090c565b600191505092915050565b6000600160008473ffffffffffffffffffffffffffffffffffffffff1673ffffffffffffffffffffffffffffffffffffffff16815260200190815260200160002060008373ffffffffffffffffffffffffffffffffffffffff1673ffffffffffffffffffffffffffffffffffffffff16815260200190815260200160002054905092915050565b600033905090565b600073ffffffffffffffffffffffffffffffffffffffff168373ffffffffffffffffffffffffffffffffffffffff161415610725576040517f08c379a000000000000000000000000000000000000000000000000000000000815260040161071c9061125e565b60405180910390fd5b600073ffffffffffffffffffffffffffffffffffffffff168273ffffffffffffffffffffffffffffffffffffffff161415610795576040517f08c379a000000000000000000000000000000000000000000000000000000000815260040161078c906112f0565b60405180910390fd5b80600160008573ffffffffffffffffffffffffffffffffffffffff1673ffffffffffffffffffffffffffffffffffffffff16815260200190815260200160002060008473ffffffffffffffffffffffffffffffffffffffff1673ffffffffffffffffffffffffffffffffffffffff168152602001908152602001600020819055508173ffffffffffffffffffffffffffffffffffffffff168373ffffffffffffffffffffffffffffffffffffffff167f8c5be1e5ebec7d5bd14f71427d1e84f3dd0314c0f7b2291e5b200ac8c7c3b925836040516108739190610ed0565b60405180910390a3505050565b600061088c8484610626565b90507fffffffffffffffffffffffffffffffffffffffffffffffffffffffffffffffff811461090657818110156108f8576040517f08c379a00000000000000000000000000000000000000000000000000000000081526004016108ef9061135c565b60405180910390fd5b61090584848484036106b5565b5b50505050565b600073ffffffffffffffffffffffffffffffffffffffff168373ffffffffffffffffffffffffffffffffffffffff16141561097c576040517f08c379a0000000000000000000000000000000000000000000000000000000008152600401610973906113ee565b60405180910390fd5b600073ffffffffffffffffffffffffffffffffffffffff168273ffffffffffffffffffffffffffffffffffffffff1614156109ec576040517f08c379a00000000000000000000000000000000000000000000000000000000081526004016109e390611480565b60405180910390fd5b6109f7838383610ced565b60008060008573ffffffffffffffffffffffffffffffffffffffff1673ffffffffffffffffffffffffffffffffffffffff16815260200190815260200160002054905081811015610a7d576040517f08c379a0000000000000000000000000000000000000000000000000000000008152600401610a7490611512565b60405180910390fd5b8181036000808673ffffffffffffffffffffffffffffffffffffffff1673ffffffffffffffffffffffffffffffffffffffff16815260200190815260200160002081905550816000808573ffffffffffffffffffffffffffffffffffffffff1673ffffffffffffffffffffffffffffffffffffffff1681526020019081526020016000206000828254610b109190611072565b925050819055508273ffffffffffffffffffffffffffffffffffffffff168473ffffffffffffffffffffffffffffffffffffffff167fddf252ad1be2c89b69c2b068fc378daa952ba7f163c4a11628f55a4df523b3ef84604051610b749190610ed0565b60405180910390a3610b87848484610cf2565b50505050565b600073ffffffffffffffffffffffffffffffffffffffff168273ffffffffffffffffffffffffffffffffffffffff161415610bfd576040517f08c379a0000000000000000000000000000000000000000000000000000000008152600401610bf49061157e565b60405180910390fd5b610c0960008383610ced565b8060026000828254610c1b9190611072565b92505081905550806000808473ffffffffffffffffffffffffffffffffffffffff1673ffffffffffffffffffffffffffffffffffffffff1681526020019081526020016000206000828254610c709190611072565b925050819055508173ffffffffffffffffffffffffffffffffffffffff16600073ffffffffffffffffffffffffffffffffffffffff167fddf252ad1be2c89b69c2b068fc378daa952ba7f163c4a11628f55a4df523b3ef83604051610cd59190610ed0565b60405180910390a3610ce960008383610cf2565b5050565b505050565b505050565b600081519050919050565b600082825260208201905092915050565b60005b83811015610d31578082015181840152602081019050610d16565b83811115610d40576000848401525b50505050565b6000601f19601f8301169050919050565b6000610d6282610cf7565b610d6c8185610d02565b9350610d7c818560208601610d13565b610d8581610d46565b840191505092915050565b60006020820190508181036000830152610daa8184610d57565b905092915050565b600080fd5b600073ffffffffffffffffffffffffffffffffffffffff82169050919050565b6000610de282610db7565b9050919050565b610df281610dd7565b8114610dfd57600080fd5b50565b600081359050610e0f81610de9565b92915050565b6000819050919050565b610e2881610e15565b8114610e3357600080fd5b50565b600081359050610e4581610e1f565b92915050565b60008060408385031215610e6257610e61610db2565b5b6000610e7085828601610e00565b9250506020610e8185828601610e36565b9150509250929050565b60008115159050919050565b610ea081610e8b565b82525050565b6000602082019050610ebb6000830184610e97565b92915050565b610eca81610e15565b82525050565b6000602082019050610ee56000830184610ec1565b92915050565b600080600060608486031215610f0457610f03610db2565b5b6000610f1286828701610e00565b9350506020610f2386828701610e00565b9250506040610f3486828701610e36565b9150509250925092565b600060ff82169050919050565b610f5481610f3e565b82525050565b6000602082019050610f6f6000830184610f4b565b92915050565b600060208284031215610f8b57610f8a610db2565b5b6000610f9984828501610e00565b91505092915050565b60008060408385031215610fb957610fb8610db2565b5b6000610fc785828601610e00565b9250506020610fd885828601610e00565b9150509250929050565b7f4e487b7100000000000000000000000000000000000000000000000000000000600052602260045260246000fd5b6000600282049050600182168061102957607f821691505b6020821081141561103d5761103c610fe2565b5b50919050565b7f4e487b7100000000000000000000000000000000000000000000000000000000600052601160045260246000fd5b600061107d82610e15565b915061108883610e15565b9250827fffffffffffffffffffffffffffffffffffffffffffffffffffffffffffffffff038211156110bd576110bc611043565b5b828201905092915050565b7f596f75206861766520616c72656164792072656365697665642074686520746f60008201527f6b656e0000000000000000000000000000000000000000000000000000000000602082015250565b6000611124602383610d02565b915061112f826110c8565b604082019050919050565b6000602082019050818103600083015261115381611117565b9050919050565b7f45524332303a2064656372656173656420616c6c6f77616e63652062656c6f7760008201527f207a65726f000000000000000000000000000000000000000000000000000000602082015250565b60006111b6602583610d02565b91506111c18261115a565b604082019050919050565b600060208201905081810360008301526111e5816111a9565b9050919050565b7f45524332303a20617070726f76652066726f6d20746865207a65726f2061646460008201527f7265737300000000000000000000000000000000000000000000000000000000602082015250565b6000611248602483610d02565b9150611253826111ec565b604082019050919050565b600060208201905081810360008301526112778161123b565b9050919050565b7f45524332303a20617070726f766520746f20746865207a65726f20616464726560008201527f7373000000000000000000000000000000000000000000000000000000000000602082015250565b60006112da602283610d02565b91506112e58261127e565b604082019050919050565b60006020820190508181036000830152611309816112cd565b9050919050565b7f45524332303a20696e73756666696369656e7420616c6c6f77616e6365000000600082015250565b6000611346601d83610d02565b915061135182611310565b602082019050919050565b6000602082019050818103600083015261137581611339565b9050919050565b7f45524332303a207472616e736665722066726f6d20746865207a65726f20616460008201527f6472657373000000000000000000000000000000000000000000000000000000602082015250565b60006113d8602583610d02565b91506113e38261137c565b604082019050919050565b60006020820190508181036000830152611407816113cb565b9050919050565b7f45524332303a207472616e7366657220746f20746865207a65726f206164647260008201527f6573730000000000000000000000000000000000000000000000000000000000602082015250565b600061146a602383610d02565b91506114758261140e565b604082019050919050565b600060208201905081810360008301526114998161145d565b9050919050565b7f45524332303a207472616e7366657220616d6f756e742065786365656473206260008201527f616c616e63650000000000000000000000000000000000000000000000000000602082015250565b60006114fc602683610d02565b9150611507826114a0565b604082019050919050565b6000602082019050818103600083015261152b816114ef565b9050919050565b7f45524332303a206d696e7420746f20746865207a65726f206164647265737300600082015250565b6000611568601f83610d02565b915061157382611532565b602082019050919050565b600060208201905081810360008301526115978161155b565b905091905056fea2646970667358221220269200307148e4a505ad25908eb3ed5b3d08dd8b315351a53d33352ed4572f1e64736f6c6343000809003360806040523480156200001157600080fd5b5060405162003122380380620031228339818101604052810190620000379190620002c2565b818181600090805190602001906200005192919062000075565b5080600190805190602001906200006a92919062000075565b5050505050620003ac565b828054620000839062000376565b90600052602060002090601f016020900481019282620000a75760008555620000f3565b82601f10620000c257805160ff1916838001178555620000f3565b82800160010185558215620000f3579182015b82811115620000f2578251825591602001919060010190620000d5565b5b50905062000102919062000106565b5090565b5b808211156200012157600081600090555060010162000107565b5090565b6000604051905090565b600080fd5b600080fd5b600080fd5b600080fd5b6000601f19601f8301169050919050565b7f4e487b7100000000000000000000000000000000000000000000000000000000600052604160045260246000fd5b6200018e8262000143565b810181811067ffffffffffffffff82111715620001b057620001af62000154565b5b80604052505050565b6000620001c562000125565b9050620001d3828262000183565b919050565b600067ffffffffffffffff821115620001f657620001f562000154565b5b620002018262000143565b9050602081019050919050565b60005b838110156200022e57808201518184015260208101905062000211565b838111156200023e576000848401525b50505050565b60006200025b6200025584620001d8565b620001b9565b9050828152602081018484840111156200027a57620002796200013e565b5b620002878482856200020e565b509392505050565b600082601f830112620002a757620002a662000139565b5b8151620002b984826020860162000244565b91505092915050565b60008060408385031215620002dc57620002db6200012f565b5b600083015167ffffffffffffffff811115620002fd57620002fc62000134565b5b6200030b858286016200028f565b925050602083015167ffffffffffffffff8111156200032f576200032e62000134565b5b6200033d858286016200028f565b9150509250929050565b7f4e487b7100000000000000000000000000000000000000000000000000000000600052602260045260246000fd5b600060028204905060018216806200038f57607f821691505b60208210811415620003a657620003a562000347565b5b50919050565b612d6680620003bc6000396000f3fe608060405234801561001057600080fd5b506004361061010b5760003560e01c80636352211e116100a2578063b88d4fde11610071578063b88d4fde146102a7578063c87b56dd146102c3578063cf378343146102f3578063e985e9c514610323578063f73140c0146103535761010b565b80636352211e1461020d57806370a082311461023d57806395d89b411461026d578063a22cb4651461028b5761010b565b806323b872dd116100de57806323b872dd146101aa57806334238d93146101c657806342842e0e146101e75780634f1ec292146102035761010b565b806301ffc9a71461011057806306fdde0314610140578063081812fc1461015e578063095ea7b31461018e575b600080fd5b61012a60048036038101906101259190611cea565b61035d565b6040516101379190611d32565b60405180910390f35b61014861043f565b6040516101559190611de6565b60405180910390f35b61017860048036038101906101739190611e3e565b6104d1565b6040516101859190611eac565b60405180910390f35b6101a860048036038101906101a39190611ef3565b610517565b005b6101c460048036038101906101bf9190611f33565b61062f565b005b6101ce61068f565b6040516101de9493929190611f95565b60405180910390f35b61020160048036038101906101fc9190611f33565b610854565b005b61020b610874565b005b61022760048036038101906102229190611e3e565b6108d1565b6040516102349190611eac565b60405180910390f35b61025760048036038101906102529190611fe1565b610983565b604051610264919061200e565b60405180910390f35b610275610a3b565b6040516102829190611de6565b60405180910390f35b6102a560048036038101906102a09190612055565b610acd565b005b6102c160048036038101906102bc91906121ca565b610ae3565b005b6102dd60048036038101906102d89190611e3e565b610b45565b6040516102ea9190611de6565b60405180910390f35b61030d600480360381019061030891906122ee565b610c58565b60405161031a919061200e565b60405180910390f35b61033d6004803603810190610338919061234a565b610d91565b60405161034a9190611d32565b60405180910390f35b61035b610e25565b005b60007f80ac58cd000000000000000000000000000000000000000000000000000000007bffffffffffffffffffffffffffffffffffffffffffffffffffffffff1916827bffffffffffffffffffffffffffffffffffffffffffffffffffffffff1916148061042857507f5b5e139f000000000000000000000000000000000000000000000000000000007bffffffffffffffffffffffffffffffffffffffffffffffffffffffff1916827bffffffffffffffffffffffffffffffffffffffffffffffffffffffff1916145b80610438575061043782610f1e565b5b9050919050565b60606000805461044e906123b9565b80601f016020809104026020016040519081016040528092919081815260200182805461047a906123b9565b80156104c75780601f1061049c576101008083540402835291602001916104c7565b820191906000526020600020905b8154815290600101906020018083116104aa57829003601f168201915b5050505050905090565b60006104dc82610f88565b6004600083815260200190815260200160002060009054906101000a900473ffffffffffffffffffffffffffffffffffffffff169050919050565b6000610522826108d1565b90508073ffffffffffffffffffffffffffffffffffffffff168373ffffffffffffffffffffffffffffffffffffffff161415610593576040517f08c379a000000000000000000000000000000000000000000000000000000000815260040161058a9061245d565b60405180910390fd5b8073ffffffffffffffffffffffffffffffffffffffff166105b2610fd3565b73ffffffffffffffffffffffffffffffffffffffff1614806105e157506105e0816105db610fd3565b610d91565b5b610620576040517f08c379a0000000000000000000000000000000000000000000000000000000008152600401610617906124ef565b60405180910390fd5b61062a8383610fdb565b505050565b61064061063a610fd3565b82611094565b61067f576040517f08c379a000000000000000000000000000000000000000000000000000000000815260040161067690612581565b60405180910390fd5b61068a838383611129565b505050565b60008060006060600860000160003373ffffffffffffffffffffffffffffffffffffffff1673ffffffffffffffffffffffffffffffffffffffff16815260200190815260200160002060000154600860000160003373ffffffffffffffffffffffffffffffffffffffff1673ffffffffffffffffffffffffffffffffffffffff16815260200190815260200160002060010160009054906101000a900460ff16600860000160003373ffffffffffffffffffffffffffffffffffffffff1673ffffffffffffffffffffffffffffffffffffffff16815260200190815260200160002060020154600860000160003373ffffffffffffffffffffffffffffffffffffffff1673ffffffffffffffffffffffffffffffffffffffff1681526020019081526020016000206003018080546107c6906123b9565b80601f01602080910402602001604051908101604052809291908181526020018280546107f2906123b9565b801561083f5780601f106108145761010080835404028352916020019161083f565b820191906000526020600020905b81548152906001019060200180831161082257829003601f168201915b50505050509050935093509350935090919293565b61086f83838360405180602001604052806000815250610ae3565b505050565b600860000160003373ffffffffffffffffffffffffffffffffffffffff1673ffffffffffffffffffffffffffffffffffffffff16815260200190815260200160002060000160008154809291906108ca906125d0565b9190505550565b6000806002600084815260200190815260200160002060009054906101000a900473ffffffffffffffffffffffffffffffffffffffff169050600073ffffffffffffffffffffffffffffffffffffffff168173ffffffffffffffffffffffffffffffffffffffff16141561097a576040517f08c379a000000000000000000000000000000000000000000000000000000000815260040161097190612665565b60405180910390fd5b80915050919050565b60008073ffffffffffffffffffffffffffffffffffffffff168273ffffffffffffffffffffffffffffffffffffffff1614156109f4576040517f08c379a00000000000000000000000000000000000000000000000000000000081526004016109eb906126f7565b60405180910390fd5b600360008373ffffffffffffffffffffffffffffffffffffffff1673ffffffffffffffffffffffffffffffffffffffff168152602001908152602001600020549050919050565b606060018054610a4a906123b9565b80601f0160208091040260200160405190810160405280929190818152602001828054610a76906123b9565b8015610ac35780601f10610a9857610100808354040283529160200191610ac3565b820191906000526020600020905b815481529060010190602001808311610aa657829003601f168201915b5050505050905090565b610adf610ad8610fd3565b8383611390565b5050565b610af4610aee610fd3565b83611094565b610b33576040517f08c379a0000000000000000000000000000000000000000000000000000000008152600401610b2a90612581565b60405180910390fd5b610b3f848484846114fd565b50505050565b6060610b5082610f88565b6000600660008481526020019081526020016000208054610b70906123b9565b80601f0160208091040260200160405190810160405280929190818152602001828054610b9c906123b9565b8015610be95780601f10610bbe57610100808354040283529160200191610be9565b820191906000526020600020905b815481529060010190602001808311610bcc57829003601f168201915b505050505090506000610bfa611559565b9050600081511415610c10578192505050610c53565b600082511115610c45578082604051602001610c2d929190612753565b60405160208183030381529060405292505050610c53565b610c4e84611570565b925050505b919050565b600080610c6560076115d8565b9050610c7184826115e6565b610c7b81846117c0565b610c856007611834565b6001600860000160003373ffffffffffffffffffffffffffffffffffffffff1673ffffffffffffffffffffffffffffffffffffffff16815260200190815260200160002060010160006101000a81548160ff02191690831515021790555080600860000160003373ffffffffffffffffffffffffffffffffffffffff1673ffffffffffffffffffffffffffffffffffffffff1681526020019081526020016000206002018190555082600860000160003373ffffffffffffffffffffffffffffffffffffffff1673ffffffffffffffffffffffffffffffffffffffff1681526020019081526020016000206003019080519060200190610d86929190611bdb565b508091505092915050565b6000600560008473ffffffffffffffffffffffffffffffffffffffff1673ffffffffffffffffffffffffffffffffffffffff16815260200190815260200160002060008373ffffffffffffffffffffffffffffffffffffffff1673ffffffffffffffffffffffffffffffffffffffff16815260200190815260200160002060009054906101000a900460ff16905092915050565b6000604051806080016040528060008152602001600015158152602001600081526020016040518060400160405280600481526020017f4e6f6e6500000000000000000000000000000000000000000000000000000000815250815250905080600860000160003373ffffffffffffffffffffffffffffffffffffffff1673ffffffffffffffffffffffffffffffffffffffff1681526020019081526020016000206000820151816000015560208201518160010160006101000a81548160ff021916908315150217905550604082015181600201556060820151816003019080519060200190610f17929190611bdb565b5090505050565b60007f01ffc9a7000000000000000000000000000000000000000000000000000000007bffffffffffffffffffffffffffffffffffffffffffffffffffffffff1916827bffffffffffffffffffffffffffffffffffffffffffffffffffffffff1916149050919050565b610f918161184a565b610fd0576040517f08c379a0000000000000000000000000000000000000000000000000000000008152600401610fc790612665565b60405180910390fd5b50565b600033905090565b816004600083815260200190815260200160002060006101000a81548173ffffffffffffffffffffffffffffffffffffffff021916908373ffffffffffffffffffffffffffffffffffffffff160217905550808273ffffffffffffffffffffffffffffffffffffffff1661104e836108d1565b73ffffffffffffffffffffffffffffffffffffffff167f8c5be1e5ebec7d5bd14f71427d1e84f3dd0314c0f7b2291e5b200ac8c7c3b92560405160405180910390a45050565b6000806110a0836108d1565b90508073ffffffffffffffffffffffffffffffffffffffff168473ffffffffffffffffffffffffffffffffffffffff1614806110e257506110e18185610d91565b5b8061112057508373ffffffffffffffffffffffffffffffffffffffff16611108846104d1565b73ffffffffffffffffffffffffffffffffffffffff16145b91505092915050565b8273ffffffffffffffffffffffffffffffffffffffff16611149826108d1565b73ffffffffffffffffffffffffffffffffffffffff161461119f576040517f08c379a0000000000000000000000000000000000000000000000000000000008152600401611196906127e9565b60405180910390fd5b600073ffffffffffffffffffffffffffffffffffffffff168273ffffffffffffffffffffffffffffffffffffffff16141561120f576040517f08c379a00000000000000000000000000000000000000000000000000000000081526004016112069061287b565b60405180910390fd5b61121a8383836118b6565b611225600082610fdb565b6001600360008573ffffffffffffffffffffffffffffffffffffffff1673ffffffffffffffffffffffffffffffffffffffff1681526020019081526020016000206000828254611275919061289b565b925050819055506001600360008473ffffffffffffffffffffffffffffffffffffffff1673ffffffffffffffffffffffffffffffffffffffff16815260200190815260200160002060008282546112cc91906128cf565b92505081905550816002600083815260200190815260200160002060006101000a81548173ffffffffffffffffffffffffffffffffffffffff021916908373ffffffffffffffffffffffffffffffffffffffff160217905550808273ffffffffffffffffffffffffffffffffffffffff168473ffffffffffffffffffffffffffffffffffffffff167fddf252ad1be2c89b69c2b068fc378daa952ba7f163c4a11628f55a4df523b3ef60405160405180910390a461138b8383836118bb565b505050565b8173ffffffffffffffffffffffffffffffffffffffff168373ffffffffffffffffffffffffffffffffffffffff1614156113ff576040517f08c379a00000000000000000000000000000000000000000000000000000000081526004016113f690612971565b60405180910390fd5b80600560008573ffffffffffffffffffffffffffffffffffffffff1673ffffffffffffffffffffffffffffffffffffffff16815260200190815260200160002060008473ffffffffffffffffffffffffffffffffffffffff1673ffffffffffffffffffffffffffffffffffffffff16815260200190815260200160002060006101000a81548160ff0219169083151502179055508173ffffffffffffffffffffffffffffffffffffffff168373ffffffffffffffffffffffffffffffffffffffff167f17307eab39ab6107e8899845ad3d59bd9653f200f220920489ca2b5937696c31836040516114f09190611d32565b60405180910390a3505050565b611508848484611129565b611514848484846118c0565b611553576040517f08c379a000000000000000000000000000000000000000000000000000000000815260040161154a90612a03565b60405180910390fd5b50505050565b606060405180602001604052806000815250905090565b606061157b82610f88565b6000611585611559565b905060008151116115a557604051806020016040528060008152506115d0565b806115af84611a57565b6040516020016115c0929190612753565b6040516020818303038152906040525b915050919050565b600081600001549050919050565b600073ffffffffffffffffffffffffffffffffffffffff168273ffffffffffffffffffffffffffffffffffffffff161415611656576040517f08c379a000000000000000000000000000000000000000000000000000000000815260040161164d90612a6f565b60405180910390fd5b61165f8161184a565b1561169f576040517f08c379a000000000000000000000000000000000000000000000000000000000815260040161169690612adb565b60405180910390fd5b6116ab600083836118b6565b6001600360008473ffffffffffffffffffffffffffffffffffffffff1673ffffffffffffffffffffffffffffffffffffffff16815260200190815260200160002060008282546116fb91906128cf565b92505081905550816002600083815260200190815260200160002060006101000a81548173ffffffffffffffffffffffffffffffffffffffff021916908373ffffffffffffffffffffffffffffffffffffffff160217905550808273ffffffffffffffffffffffffffffffffffffffff16600073ffffffffffffffffffffffffffffffffffffffff167fddf252ad1be2c89b69c2b068fc378daa952ba7f163c4a11628f55a4df523b3ef60405160405180910390a46117bc600083836118bb565b5050565b6117c98261184a565b611808576040517f08c379a00000000000000000000000000000000000000000000000000000000081526004016117ff90612b6d565b60405180910390fd5b8060066000848152602001908152602001600020908051906020019061182f929190611bdb565b505050565b6001816000016000828254019250508190555050565b60008073ffffffffffffffffffffffffffffffffffffffff166002600084815260200190815260200160002060009054906101000a900473ffffffffffffffffffffffffffffffffffffffff1673ffffffffffffffffffffffffffffffffffffffff1614159050919050565b505050565b505050565b60006118e18473ffffffffffffffffffffffffffffffffffffffff16611bb8565b15611a4a578373ffffffffffffffffffffffffffffffffffffffff1663150b7a0261190a610fd3565b8786866040518563ffffffff1660e01b815260040161192c9493929190612be2565b602060405180830381600087803b15801561194657600080fd5b505af192505050801561197757506040513d601f19601f820116820180604052508101906119749190612c43565b60015b6119fa573d80600081146119a7576040519150601f19603f3d011682016040523d82523d6000602084013e6119ac565b606091505b506000815114156119f2576040517f08c379a00000000000000000000000000000000000000000000000000000000081526004016119e990612a03565b60405180910390fd5b805181602001fd5b63150b7a0260e01b7bffffffffffffffffffffffffffffffffffffffffffffffffffffffff1916817bffffffffffffffffffffffffffffffffffffffffffffffffffffffff191614915050611a4f565b600190505b949350505050565b60606000821415611a9f576040518060400160405280600181526020017f30000000000000000000000000000000000000000000000000000000000000008152509050611bb3565b600082905060005b60008214611ad1578080611aba906125d0565b915050600a82611aca9190612c9f565b9150611aa7565b60008167ffffffffffffffff811115611aed57611aec61209f565b5b6040519080825280601f01601f191660200182016040528015611b1f5781602001600182028036833780820191505090505b5090505b60008514611bac57600182611b38919061289b565b9150600a85611b479190612cd0565b6030611b5391906128cf565b60f81b818381518110611b6957611b68612d01565b5b60200101907effffffffffffffffffffffffffffffffffffffffffffffffffffffffffffff1916908160001a905350600a85611ba59190612c9f565b9450611b23565b8093505050505b919050565b6000808273ffffffffffffffffffffffffffffffffffffffff163b119050919050565b828054611be7906123b9565b90600052602060002090601f016020900481019282611c095760008555611c50565b82601f10611c2257805160ff1916838001178555611c50565b82800160010185558215611c50579182015b82811115611c4f578251825591602001919060010190611c34565b5b509050611c5d9190611c61565b5090565b5b80821115611c7a576000816000905550600101611c62565b5090565b6000604051905090565b600080fd5b600080fd5b60007fffffffff0000000000000000000000000000000000000000000000000000000082169050919050565b611cc781611c92565b8114611cd257600080fd5b50565b600081359050611ce481611cbe565b92915050565b600060208284031215611d0057611cff611c88565b5b6000611d0e84828501611cd5565b91505092915050565b60008115159050919050565b611d2c81611d17565b82525050565b6000602082019050611d476000830184611d23565b92915050565b600081519050919050565b600082825260208201905092915050565b60005b83811015611d87578082015181840152602081019050611d6c565b83811115611d96576000848401525b50505050565b6000601f19601f8301169050919050565b6000611db882611d4d565b611dc28185611d58565b9350611dd2818560208601611d69565b611ddb81611d9c565b840191505092915050565b60006020820190508181036000830152611e008184611dad565b905092915050565b6000819050919050565b611e1b81611e08565b8114611e2657600080fd5b50565b600081359050611e3881611e12565b92915050565b600060208284031215611e5457611e53611c88565b5b6000611e6284828501611e29565b91505092915050565b600073ffffffffffffffffffffffffffffffffffffffff82169050919050565b6000611e9682611e6b565b9050919050565b611ea681611e8b565b82525050565b6000602082019050611ec16000830184611e9d565b92915050565b611ed081611e8b565b8114611edb57600080fd5b50565b600081359050611eed81611ec7565b92915050565b60008060408385031215611f0a57611f09611c88565b5b6000611f1885828601611ede565b9250506020611f2985828601611e29565b9150509250929050565b600080600060608486031215611f4c57611f4b611c88565b5b6000611f5a86828701611ede565b9350506020611f6b86828701611ede565b9250506040611f7c86828701611e29565b9150509250925092565b611f8f81611e08565b82525050565b6000608082019050611faa6000830187611f86565b611fb76020830186611d23565b611fc46040830185611f86565b8181036060830152611fd68184611dad565b905095945050505050565b600060208284031215611ff757611ff6611c88565b5b600061200584828501611ede565b91505092915050565b60006020820190506120236000830184611f86565b92915050565b61203281611d17565b811461203d57600080fd5b50565b60008135905061204f81612029565b92915050565b6000806040838503121561206c5761206b611c88565b5b600061207a85828601611ede565b925050602061208b85828601612040565b9150509250929050565b600080fd5b600080fd5b7f4e487b7100000000000000000000000000000000000000000000000000000000600052604160045260246000fd5b6120d782611d9c565b810181811067ffffffffffffffff821117156120f6576120f561209f565b5b80604052505050565b6000612109611c7e565b905061211582826120ce565b919050565b600067ffffffffffffffff8211156121355761213461209f565b5b61213e82611d9c565b9050602081019050919050565b82818337600083830152505050565b600061216d6121688461211a565b6120ff565b9050828152602081018484840111156121895761218861209a565b5b61219484828561214b565b509392505050565b600082601f8301126121b1576121b0612095565b5b81356121c184826020860161215a565b91505092915050565b600080600080608085870312156121e4576121e3611c88565b5b60006121f287828801611ede565b945050602061220387828801611ede565b935050604061221487828801611e29565b925050606085013567ffffffffffffffff81111561223557612234611c8d565b5b6122418782880161219c565b91505092959194509250565b600067ffffffffffffffff8211156122685761226761209f565b5b61227182611d9c565b9050602081019050919050565b600061229161228c8461224d565b6120ff565b9050828152602081018484840111156122ad576122ac61209a565b5b6122b884828561214b565b509392505050565b600082601f8301126122d5576122d4612095565b5b81356122e584826020860161227e565b91505092915050565b6000806040838503121561230557612304611c88565b5b600061231385828601611ede565b925050602083013567ffffffffffffffff81111561233457612333611c8d565b5b612340858286016122c0565b9150509250929050565b6000806040838503121561236157612360611c88565b5b600061236f85828601611ede565b925050602061238085828601611ede565b9150509250929050565b7f4e487b7100000000000000000000000000000000000000000000000000000000600052602260045260246000fd5b600060028204905060018216806123d157607f821691505b602082108114156123e5576123e461238a565b5b50919050565b7f4552433732313a20617070726f76616c20746f2063757272656e74206f776e6560008201527f7200000000000000000000000000000000000000000000000000000000000000602082015250565b6000612447602183611d58565b9150612452826123eb565b604082019050919050565b600060208201905081810360008301526124768161243a565b9050919050565b7f4552433732313a20617070726f76652063616c6c6572206973206e6f7420746f60008201527f6b656e206f776e6572206e6f7220617070726f76656420666f7220616c6c0000602082015250565b60006124d9603e83611d58565b91506124e48261247d565b604082019050919050565b60006020820190508181036000830152612508816124cc565b9050919050565b7f4552433732313a2063616c6c6572206973206e6f7420746f6b656e206f776e6560008201527f72206e6f7220617070726f766564000000000000000000000000000000000000602082015250565b600061256b602e83611d58565b91506125768261250f565b604082019050919050565b6000602082019050818103600083015261259a8161255e565b9050919050565b7f4e487b7100000000000000000000000000000000000000000000000000000000600052601160045260246000fd5b60006125db82611e08565b91507fffffffffffffffffffffffffffffffffffffffffffffffffffffffffffffffff82141561260e5761260d6125a1565b5b600182019050919050565b7f4552433732313a20696e76616c696420746f6b656e2049440000000000000000600082015250565b600061264f601883611d58565b915061265a82612619565b602082019050919050565b6000602082019050818103600083015261267e81612642565b9050919050565b7f4552433732313a2061646472657373207a65726f206973206e6f74206120766160008201527f6c6964206f776e65720000000000000000000000000000000000000000000000602082015250565b60006126e1602983611d58565b91506126ec82612685565b604082019050919050565b60006020820190508181036000830152612710816126d4565b9050919050565b600081905092915050565b600061272d82611d4d565b6127378185612717565b9350612747818560208601611d69565b80840191505092915050565b600061275f8285612722565b915061276b8284612722565b91508190509392505050565b7f4552433732313a207472616e736665722066726f6d20696e636f72726563742060008201527f6f776e6572000000000000000000000000000000000000000000000000000000602082015250565b60006127d3602583611d58565b91506127de82612777565b604082019050919050565b60006020820190508181036000830152612802816127c6565b9050919050565b7f4552433732313a207472616e7366657220746f20746865207a65726f2061646460008201527f7265737300000000000000000000000000000000000000000000000000000000602082015250565b6000612865602483611d58565b915061287082612809565b604082019050919050565b6000602082019050818103600083015261289481612858565b9050919050565b60006128a682611e08565b91506128b183611e08565b9250828210156128c4576128c36125a1565b5b828203905092915050565b60006128da82611e08565b91506128e583611e08565b9250827fffffffffffffffffffffffffffffffffffffffffffffffffffffffffffffffff0382111561291a576129196125a1565b5b828201905092915050565b7f4552433732313a20617070726f766520746f2063616c6c657200000000000000600082015250565b600061295b601983611d58565b915061296682612925565b602082019050919050565b6000602082019050818103600083015261298a8161294e565b9050919050565b7f4552433732313a207472616e7366657220746f206e6f6e20455243373231526560008201527f63656976657220696d706c656d656e7465720000000000000000000000000000602082015250565b60006129ed603283611d58565b91506129f882612991565b604082019050919050565b60006020820190508181036000830152612a1c816129e0565b9050919050565b7f4552433732313a206d696e7420746f20746865207a65726f2061646472657373600082015250565b6000612a59602083611d58565b9150612a6482612a23565b602082019050919050565b60006020820190508181036000830152612a8881612a4c565b9050919050565b7f4552433732313a20746f6b656e20616c7265616479206d696e74656400000000600082015250565b6000612ac5601c83611d58565b9150612ad082612a8f565b602082019050919050565b60006020820190508181036000830152612af481612ab8565b9050919050565b7f45524337323155524953746f726167653a2055524920736574206f66206e6f6e60008201527f6578697374656e7420746f6b656e000000000000000000000000000000000000602082015250565b6000612b57602e83611d58565b9150612b6282612afb565b604082019050919050565b60006020820190508181036000830152612b8681612b4a565b9050919050565b600081519050919050565b600082825260208201905092915050565b6000612bb482612b8d565b612bbe8185612b98565b9350612bce818560208601611d69565b612bd781611d9c565b840191505092915050565b6000608082019050612bf76000830187611e9d565b612c046020830186611e9d565b612c116040830185611f86565b8181036060830152612c238184612ba9565b905095945050505050565b600081519050612c3d81611cbe565b92915050565b600060208284031215612c5957612c58611c88565b5b6000612c6784828501612c2e565b91505092915050565b7f4e487b7100000000000000000000000000000000000000000000000000000000600052601260045260246000fd5b6000612caa82611e08565b9150612cb583611e08565b925082612cc557612cc4612c70565b5b828204905092915050565b6000612cdb82611e08565b9150612ce683611e08565b925082612cf657612cf5612c70565b5b828206905092915050565b7f4e487b7100000000000000000000000000000000000000000000000000000000600052603260045260246000fdfea26469706673582212206a438a5765309eac56509f4f19b0d371b240a4c7076dc567f2db74894a84818f64736f6c63430008090033",
  "linkReferences": {},
  "deployedLinkReferences": {}
}